:020000040800F2
:1000000028140020E500000839070008D301000883
:1000100035070008CD010008A30800080000000013
:100020000000000000000000000000007D07000844
:10003000D1010008000000007B07000881070008CC
:10004000FF000008FF000008FF000008FF00000894
:10005000FF000008FF000008FF000008FF00000884
:1000600000000000FF000008FF000008FF0000087B
:10007000FF000008FF000008FF000008000000006B
:10008000FF000008FF00000800000000FF0000085B
:10009000FF000008FF000008FF000008FF00000844
:1000A000FF000008FF000008FF000008A10800088A
:1000B000FF00000800000000000000000000000039
:1000C000FF00000800000000FF000008DFF810D06B
:1000D00000F06AF800480047910F0008AFF3008075
:1000E000281400200648804706480047FEE7FEE740
:1000F000FEE7FEE7FEE7FEE7FEE7FEE7FEE7FEE7D8
:10010000B9070008CD0000082DE9F05F0546002082
:1001100092469B4688460646814640241BE0284678
:1001200041464746224600F02FF853465A46C01A29
:10013000914110D311461846224600F016F82D1AA8
:1001400067EB01084F4622460120002100F00DF820
:1001500017EB00094E41201EA4F10104DFDC4846E4
:1001600031462A464346BDE8F09F202A04DB203A68
:1001700000FA02F1002070479140C2F1200320FAFA
:1001800003F3194390407047202A04DB203A21FAF8
:1001900002F00021704721FA02F3D040C2F12002A0
:1001A0009140084319467047064C074D06E0E06849
:1001B00040F0010394E8070098471034AC42F6D3AE
:1001C000FFF788FF0C1D00082C1D000800BFFEE78C
:1001D000704700BFFEE72DE9F04104460D46164684
:1001E0001F462A2000F056FA201200F07BFAE0B2F7
:1001F00000F078FA301200F075FAF0B200F072FAFE
:100200002B2000F047FA281200F06CFAE8B200F058
:1002100069FA381200F066FAF8B200F063FA2C209E
:1002200000F038FABDE8F08170B506460F48408806
:10023000401E83B20D480088401E82B2002108464D
:10024000FFF7C9FF00240CE0002504E0304600F071
:1002500003FA681C85B205484088A842F6DC601C99
:1002600084B202480088A042EEDC70BD1800002075
:1002700010B504467CB90020104988712C200881F3
:100280002A2048812B2088814FF4A07008804FF4E9
:10029000F07048800EE00120084988712C20088108
:1002A0002A2048812B2088814FF4F07008804FF479
:1002B000A0704880032000F041F910BD1800002014
:1002C00010B501214FF0904000F0F8FD782001F0CA
:1002D000DFFA01214FF0904000F0F0FD782001F0AE
:1002E000D7FA4FF6FF71804800F0E8FDD32000F008
:1002F000D1F900F0FDF87D49888000F0F9F87B49DC
:10030000888000F0F5F879498880084680884FF6A3
:10031000FF7101EA00207549888000F0E9F873490F
:100320008988084371498880E02000F0B3F90020F3
:1003300000F092F9132000F08FF9182000F08CF9EA
:10034000042000F089F90F2000F086F9062000F063
:1003500083F93A2000F080F9562000F07DF94D2015
:1003600000F07AF9032000F077F90A2000F074F920
:10037000062000F071F9302000F06EF93E2000F008
:100380006BF90F2000F068F9E12000F083F90020FC
:1003900000F062F9132000F05FF9182000F05CF91A
:1003A000012000F059F9112000F056F9062000F064
:1003B00053F9382000F050F9342000F04DF94D2069
:1003C00000F04AF9062000F047F90D2000F044F94A
:1003D0000B2000F041F9312000F03EF9372000F009
:1003E0003BF90F2000F038F9F72000F053F9A9206D
:1003F00000F032F9512000F02FF92C2000F02CF9F8
:10040000822000F029F9C02000F044F9112000F00A
:1004100023F9092000F020F9C12000F03BF9412028
:1004200000F01AF9C52000F035F9002000F014F9A9
:100430000A2000F011F9802000F00EF9B12000F040
:1004400029F9B02000F008F9112000F005F9B420D6
:1004500000F020F9022000F0FFF8B62000F01AF9B1
:10046000022000F0F9F8222000F0F6F83B2000F01E
:10047000F3F8B72000F00EF9C62000F0EDF8BE202A
:1004800000F008F9002000F0E7F8042000F0E4F89C
:10049000E92000F0FFF8002000F0DEF83A2000F03C
:1004A000F9F8552000F0D8F8362000F0F3F80820CD
:1004B00000F0D2F8112000F0EDF80120FFF7D8FE8F
:1004C000782001F0E5F9292000F0E4F8112000F08F
:1004D000E1F8C82001F0DCF9292000F0DBF84FF644
:1004E000FF70FFF7A1FE10BD0004004818000020B7
:1004F00010B50024002000F011FE4FF400510D480B
:1005000000F0DAFC04214FF0904000F0D5FC0A48DE
:10051000006884B204214FF0904000F0CFFC4FF40B
:100520000051044800F0CAFC012000F0F7FD20460D
:1005300010BD0000000800481004004870B50546D2
:10054000002400264348807901280BD14148808847
:1005500046F60401884205D03E48808841F6631182
:10056000884208D13B488079F0B93A48808841F602
:100570006311884218D1082D15D2DFE805F0040672
:10058000080A0C0E101206250DE007250BE00425C5
:1005900009E0052507E0012505E0002503E0032526
:1005A00001E0022500BF00BF082D1CD2DFE805F0E6
:1005B0000406090C0F12151800BF14E044F0800463
:1005C00011E044F040040EE044F0C0040BE044F0BD
:1005D000200408E044F0600405E044F0A00402E0D8
:1005E00044F0E00400BF00BF362644F00804214672
:1005F000304600F095F81749488900F04BF8002084
:1006000000F02AF8002000F027F812490988491E56
:10061000C1F30F2000F020F80E490978491EC8B236
:1006200000F01AF80B49888900F034F8002000F037
:1006300013F8002000F010F806494988491EC1F35C
:100640000F2000F009F803498978491EC8B200F06C
:1006500003F870BD1800002010B504464FF4005197
:100660000A4800F029FC0A48046008214FF0904035
:1006700000F022FC08214FF0904000F01FFC4FF4E6
:100680000051024800F01AFC10BD000000080048AC
:100690001404004810B5044602214FF0904000F0C9
:1006A0000BFC4FF400510D4800F006FC0C480460B0
:1006B00008214FF0904000F0FFFB08214FF09040E0
:1006C00000F0FCFB02214FF0904000F0F7FB4FF4EC
:1006D0000051024800F0F2FB10BD00000008004885
:1006E0001404004810B504464FF400510A4800F0C5
:1006F000E3FB0A48046008214FF0904000F0DCFB67
:1007000008214FF0904000F0D9FB4FF4005102480F
:1007100000F0D4FB10BD000000080048140400489D
:1007200070B505460C462846FFF7B4FF2046FFF794
:1007300093FF70BD00BFFEE77047F0B503460C465F
:1007400003F00701C1F10700042801D9042001E0EA
:10075000C1F107000646081D072801D2002000E06D
:10076000C81E05460120B040401E2040A840012779
:10077000AF407F1E17403843F0BD70477047000000
:1007800010B50A480068401C08490860B0F57A7F37
:1007900008D100200860064800680649086000206B
:1007A0000349086001F00CFA10BD000000000020B1
:1007B00008000020040000201748006820F0010015
:1007C000401C1549086000BF13480068C0F3400092
:1007D0000028F9D01048406820F003000E49486016
:1007E00000BF0D484068C0F381000028F9D10A48D5
:1007F00000680A490840084908600020486041F63E
:100800001070C8624FF4801008634FF41F008860B6
:10081000C80303490860704700100240FFFFF2FE62
:1008200008ED00E02DE9F04106464FF496274FF021
:100830000008012E04D0022E05D0032E09D105E0B8
:100840004FF0000806E04FF4002803E04FF4801852
:1008500000E000BF00BF1DE04FF4805241460F484A
:1008600000F050FE00240EE00C48055D4FF6FF70CE
:1008700000EA05250949601C085C284485B2284621
:10088000FFF7EAFEA41CB4F5805FEDD308F58058AD
:10089000A7F58057002FDFD1BDE8F08126000020AA
:1008A000704700BFFEE7000002480068C0F3022066
:1008B000704700000CED00E010B5002804DB0A07CB
:1008C000130E054A135406E00A07140E034A00F0FB
:1008D0000F031B1FD45410BD00E400E018ED00E02E
:1008E00002E008C8121F08C1002AFAD170477047F9
:1008F000002001E001C1121F002AFBD17047000057
:100900000349496860F30711014A516070470000CC
:10091000001002400349496860F30A21014A51600E
:1009200070470000001002400349496860F3CD2180
:10093000014A51607047000000100240012807D1B1
:100940000749496D21F030013031054A516505E014
:100950000349496D21F03001014A5165704700009B
:1009600000100240052827D2DFE800F0030A111822
:100970001F00134A126861F30002114B1A601CE059
:100980000F4A126861F310420D4B1A6015E00C4AD1
:10099000126861F318620A4B1A600EE0084A126A84
:1009A00061F30002064B1A6207E0054A526A61F3DE
:1009B0000002034B5A6200E000BF00BF7047000016
:1009C000001002402DE9F04F85B004460025AA46EC
:1009D000AB460026A94600200490039002900190A7
:1009E00000F0F2F90090009820B1012812D00228FE
:1009F00075D112E05648406DC0F3402038B15448DC
:100A0000006BC0F3406010B15248206001E05248D2
:100A1000206067E05048206064E04D484068C0F3C3
:100A2000004B4B48C06AC00F30BB49484068C0F318
:100A3000834547484068C0F3417ABAF1000F01D1BD
:100A40000F2D04D14FEA0A10401C054400E0AD1CF4
:100A5000BBF1000F03D14148684320603DE03C48B2
:100A60004068C0F3404018B13C486843206034E01F
:100A700039486843206030E03548C06AC0F303104D
:100A800003903348C06AC0F3082002903048C06A1F
:100A900000F007000190BBF1000F02D12F48049035
:100AA00009E02B484068C0F3404010B12B48049047
:100AB00001E0294804900121019801FA00F003990E
:100AC00000FB01FC02990498A0FB017001466246FC
:100AD00000233846FFF718FB206003E0FFE71E48BD
:100AE000206000BF00BF1A484068C0F303161C48CE
:100AF00010F80690206820FA09F0606014484068F9
:100B0000C0F30226174810F80690606820FA09F032
:100B1000E0600F484068C0F3C226134810F8069002
:100B2000606820FA09F0A06009484068C0F30076C8
:100B300007484068C0F3813040EA86060B4810F849
:100B40000690A068B0FBF9F0206105B0BDE8F08F19
:100B500000100240006CDC0200127A0000093D0027
:100B6000D21C0008E21C0008EA1C0008F21C000865
:100B700010B501460020094B03EB1142126801F049
:100B80001F040123A3401A4001F01F040123A340C6
:100B90009A4200D000E0012010BD00000010024089
:100BA00030B50024002500E0641C1120FFF7E0FFB1
:100BB000012802D0B4F5405FF6D31120FFF7D8FF2B
:100BC000012801D0002500E00125284630BD0000A5
:100BD00010B501290DD10E4B03EB1042126800F045
:100BE0001F040123A3401A43094C04EB10431A606D
:100BF0000CE0074B03EB1042126800F01F040123C6
:100C0000A3409A43024C04EB10431A6010BD00004D
:100C10000010024030B502460020002372B9354C66
:100C2000646824F48034334D6C6033482C46246B64
:100C300024F0007404F100742C6319E02D4C6468F6
:100C400024F4803404F580342A4D6C60012A06D1E6
:100C50002A482C46646824F400346C6008E0264876
:100C6000244C646824F4003404F50034214D6C6095
:100C7000234CA04204D9234CA04201D2002326E0F9
:100C8000214CA04204D9214CA04201D201231EE0F4
:100C90001F4CA04204D91F4CA04201D2022316E0EF
:100CA0001C4CA04204D91C4CA04201D203230EE0EC
:100CB0001A4CA04204D91A4CA04201D2042306E0E7
:100CC000174CA04203D9174CA04200D20523094C6F
:100CD000646861F39544074D6C600D09054C6468C8
:100CE00065F35E74034D6C602C46E46A63F31A642A
:100CF000EC6230BD0010024000093D0000127A0095
:100D000060823B00404B4C0080584F00105E5F00FB
:100D100094357700101B7F0020BCBE00286BEE00CE
:100D200030D73D01D8E9DC011648006820F0010009
:100D3000401C1449086000BF12480068C0F340001E
:100D40000028F9D00F48406820F003000D494860A2
:100D500000BF0C484068C0F381000028F9D1094861
:100D6000006809490840074908600020486041F6CA
:100D70001070C8624FF4801008634FF41F00886041
:100D80007047000000100240FFFFF2FE0D49496865
:100D900060F301010B4A516000BF00BF00BF00BFFC
:100DA00000BF00BF00BF00BF00BF00BF00BF00BF4B
:100DB00000BF00BF00BF00BF00BF00BF00BF00BF3B
:100DC000704700000010024002484068C0F38100F4
:100DD0007047000000100240026861F300020260E8
:100DE00070470021016041600181418101734173BD
:100DF0008173C173017441747047000001494860F8
:100E00007047000000000240014600200022044B11
:100E10001A6802EA01030BB1012000E000207047CC
:100E20000000024002684BF6EF731A40026002684D
:100E30000B891A4302604B7C026863F30D32026037
:100E4000CB7B026863F38B2202608B7B026863F3C7
:100E5000092202604B7B026863F3C71202600B7BBE
:100E6000026863F3861202600B7C026863F345122A
:100E700002604A8942600A6882604A68C2607047BC
:100E80000021026822F0010202600022026042603A
:100E90008260C2600146CAB2083A1423B2FBF3F280
:100EA00093000F229A40034B5B681A43014B5A6030
:100EB0007047000000000240816270478161704706
:100EC0004FF6FF71016000218171017141710121B3
:100ED000C171704770B50A4600211488A3B233E08F
:100EE00003F001046CB304684E000325B540AC4325
:100EF000046094794D00AC4005682C43046044685C
:100F000001258D40AC434460446815798D402C43E5
:100F1000446084684E000325B540AC438460D479B6
:100F20004D00AC4085682C438460C4684E000325A6
:100F3000B540AC43C46054794D00AC40C5682C4307
:100F4000C4605B104C1CA1B2002BC9DC70BDF0B5B5
:100F5000002300244D07ED0E02FA05F3CD105DB11C
:100F6000456A4E07F70E0F26BE40B5434562456AF7
:100F700045EA030444620AE0056A4E07F70E0F26AD
:100F8000BE40B5430562056A45EA03040462F0BD4C
:100F90001CB500200190009000F09CFD00F06EFD5B
:100FA00000F006FD00F018FE00F082FC00231A4657
:100FB0001946174800F0A2FC01211548FFF70CFF65
:100FC00000F026FE00F078FE00F09CFCAA211148FB
:100FD00000F098FB00F034FA00F0B5FA0090FFF74B
:100FE0006FF914E00120FFF71DFC4FF47A7000F058
:100FF0004FFC0220FFF716FC4FF47A7000F048FC1B
:101000000320FFF70FFC4FF47A7000F041FCE9E792
:1010100008000240003801402DE9F0470B46144615
:101020004FF0000C00BF2C4A1268C2F302211D468B
:1010300026460A46C2F10709B9F1040F02D94FF05A
:10104000040901E0C2F10709C84602F10409B9F137
:10105000070F02D24FF0000901E0A2F103094F4649
:101060004FF0010909FA08F9A9F1010909EA05098E
:1010700009FA07F94FF0010A0AFA07FAAAF1010A78
:101080000AEA060A49EA0A09CC46014662460029EC
:1010900004DB15072E0E114D6E5407E015072F0EB9
:1010A0000D4D0C3501F00F06361FAF5500BF014640
:1010B00000290DDB00BF00BF01F01F050122AA407F
:1010C0004D09AD0005F1E025C5F8002100BF00BFC6
:1010D00000BFBDE8F08700000CED00E000E400E098
:1010E00000BF00F00702064B19684FF6FF031940D6
:1010F000044B0B4343EA0221014B196000BF7047C8
:101100000CED00E00000FA050349096860F30821CE
:10111000014A116070470000007000401CB5044691
:101120006846FFF7CDFE012C13D102208DF8070091
:1011300000208DF8040001208DF806004FF6FF70A6
:10114000009000208DF8050069460948FFF7C2FEAF
:101150000CE000208DF806004FF6FF700090012093
:101160008DF8050069460248FFF7B4FE1CBD00007B
:101170000004004810B5A52000F002F810BD0000E2
:1011800070B5044600210F4800F0BBF800210D485F
:1011900000F0B2F821460B4800F0ACF800BF012186
:1011A000084800F0B3F80028F9D0064800F09EF88F
:1011B000C5B200BF8021034800F0A8F80028F9D18B
:1011C000284670BD0030014030B587B005460C465A
:1011D000A52006903B48FFF753FE3A481430FFF72E
:1011E0004FFE01A8FFF7FDFDA0B2ADF80E001020E4
:1011F000ADF80C0006A8029000208DF813008DF8C1
:1012000011003148019000208DF812008DF8100077
:1012100003208DF8150000208DF8140001A929483D
:101220001430FFF7FFFDA0B2ADF80E000020ADF8BE
:101230000C0002958DF8130001208DF81100224852
:10124000019000208DF812008DF8100003208DF819
:10125000150000208DF8140001A91A48FFF7E2FDDF
:10126000012119480C3800F04CF8012116480C38BF
:1012700000F042F801211348FFF7AEFD01211148AB
:101280001430FFF7A9FD00BF2020FFF7BDFD0028A7
:10129000FAD02020FFF7B2FD00210A48FFF79CFD9D
:1012A000002108481430FFF797FD002106480C384C
:1012B00000F027F8002104480C3800F01DF807B0B2
:1012C00030BD00001C0002400C30014000210170C4
:1012D00041708170C1700171417181710121C171D1
:1012E0007047026861F38612026070470146C86861
:1012F00080B27047C1607047426861F3000242608B
:101300007047426861F34102426070470246002024
:1013100093680B4003B900E001207047C26922F4D2
:101320000062C2610A7862B9026822F40042026077
:10133000026822F480420260026822F48062026045
:1013400036E00A78012A0ED1026822F400420260D7
:10135000026822F480420260026822F4806202F590
:101360008062026024E00A78022A0ED1026822F428
:10137000004202F500420260026822F480420260EC
:10138000026822F48062026012E00A78032A0FD118
:10139000026822F4004202F500420260026822F470
:1013A000804202F580420260026822F4806202609C
:1013B000CB79026863F3492202604A78012A09D195
:1013C000CA79012A06D1026822F4807202F580727D
:1013D000026003E0026822F4807202604B780268C7
:1013E00063F3820202608A78072A0BDD426822F4E6
:1013F000807202F5807242608A78036862F3C503E6
:10140000036008E0426822F4807242608B780268D0
:1014100063F3C5020260CB78026863F3C71202600F
:101420000B79026863F3CB2202604B79026863F3A5
:10143000410202608B79026863F300020260704728
:101440001FB501212C48FFF7C3FB01212B48FFF7F3
:10145000BFFB01214FF4A010FFF7BAFB2020029040
:1014600002208DF80E0001208DF80F0002A94FF028
:101470009040FFF72FFD4020029002A94FF09040CE
:10148000FFF728FD8020029002A94FF09040FFF75F
:1014900021FD01208DF80E001020029002A94FF0CE
:1014A0009040FFF717FD10214FF09040FFF706FD29
:1014B00001211148FFF78CFB6846FFF707FF00206A
:1014C0008DF8000001208DF801008DF80200002049
:1014D0008DF803008DF8040001208DF805008DF8CB
:1014E00006008DF8070069460548FFF717FF012140
:1014F0000348FFF7F6FE1FBD0C0018001100140092
:101500000030014070B506460C46154610214FF0DC
:101510009040FFF7D1FC0320FFF732FEC4F30740F1
:10152000FFF72EFEC4F30720FFF72AFEE0B2FFF715
:1015300027FE29463046FFF747FE10214FF0904026
:10154000FFF7BCFC70BD10B5002410214FF0904097
:10155000FFF7B2FC9020FFF713FE0020FFF710FE0C
:101560000020FFF70DFE0020FFF70AFEFFF702FE46
:1015700044EA0024FFF7FEFD044310214FF09040A1
:10158000FFF79CFC204610BD2DE9FF5F00240025DD
:101590000026A146A246A346002003900290019097
:1015A000FFF712FC0090009820B1012814D0022807
:1015B00074D115E04348406DC0F3402040B141482C
:1015C000006BC0F3406018B13F484049086002E03A
:1015D0003F483E49086065E03D483C49086061E09D
:1015E00038484068C0F300463648C06AC00F20BB88
:1015F00034484068C0F3834432484068C0F34175C2
:101600000DB90F2C03D12801401C044400E0A41C98
:1016100026B9304860432D4908603DE029484068BC
:10162000C0F3404020B12B4860432849086033E0B4
:1016300027486043254908602EE02248C06AC0F36D
:10164000031003901F48C06AC0F3082002901D4891
:10165000C06A00F00700019016B9DFF878B009E021
:1016600018484068C0F3404010B1DFF868B001E0AE
:10167000DFF85CB00121019801FA00F0039900FB4A
:1016800001FC0298ABFB007001466246002338461D
:10169000FEF73AFD0D49086004E0FFE70C480B49EE
:1016A000086000BF00BF07484068C0F303190A483C
:1016B00010F809A00548006820FA0AF003490860FC
:1016C000BDE8FF9F00100240006CDC021400002007
:1016D00000127A0000093D00FA1C0008042808D115
:1016E0004FF0E021096941F004014FF0E02211615F
:1016F00007E04FF0E021096921F004014FF0E022FA
:1017000011617047C1F3080242607047C26861F31B
:101710004D32C260704741B9426922F48072426121
:10172000426922F40072426127E001290AD142692C
:1017300022F4807202F580724261426922F40072E2
:1017400042611AE002290AD1426922F480724261A0
:10175000426922F4007202F5007242610DE0032931
:101760000BD1426922F4807202F5807242614269B3
:1017700022F4007202F50072426170472DE9F043D5
:1017800085B004460F46904699466846FFF71AF919
:101790001448844201D1029E00E0039E06EB8600BD
:1017A0004000B0FBF7F50A20B5FBF0F100FB11504B
:1017B000052803D20A20B5FBF0F503E00A20B5FBAB
:1017C000F0F0451CA06865F30F00A060E06868F3C6
:1017D0000C30E060206969F30D30206105B0BDE890
:1017E000F08300000038014041B9C26822F4007261
:1017F000C260C26822F48062C2601AE001290AD184
:10180000C26822F40072C260C26822F4806202F5EB
:101810008062C2600DE002290BD1C26822F400721E
:1018200002F50072C260C26822F4806202F5806232
:10183000C2607047C26861F38202C2607047C268CA
:1018400061F3C302C26070474AF6AA2001490860EA
:1018500070470000003000400349496860F302010E
:10186000014A5160704700000030004018B9002163
:10187000034A116003E045F25551014A1160704777
:10188000003000400149886070470000003000408F
:1018900070B5044600F08EF90546601C00B1641C6A
:1018A00000BF00F087F9401BA042FAD370BD0000D2
:1018B00000B585B01048FFF7E3FA6846FFF791FAE4
:1018C0004FF48040ADF8080000208DF80F00012093
:1018D0008DF80D0000208DF80E0001208DF80C0011
:1018E00000208DF811008DF8100069460248FFF7BE
:1018F00099FA05B000BD0000080002404360816015
:10190000C26070471CB56846FFF7DAFA4FF4005121
:101910002548FFF7D1FA1F214FF09040FFF7CCFA8E
:1019200040F6FF712148FFF7C7FA4FF470411F4896
:10193000FFF7C4FA02208DF8070000208DF804009C
:1019400001208DF806004003009000208DF805006E
:1019500069461548FFF7BEFA02208DF807000020FF
:101960008DF8040001208DF806001F200090002053
:101970008DF8050069464FF09040FFF7ABFA022062
:101980008DF8070000208DF8040001208DF8060076
:101990004FF6FF70009000208DF80500694603485F
:1019A000FFF798FA1CBD000000080048000400483A
:1019B00070B50320FFF794FBFEF776FF0546002283
:1019C0001146FEF7BAFE044621466FF00B00FEF703
:1019D00073FFFEF769FF054600221146FEF7ADFED4
:1019E000044621466FF00A00FEF766FFFEF75CFF33
:1019F000054600221146FEF7A0FE044621466FF080
:101A00000900FEF759FFFEF74FFF05460022114679
:101A1000FEF793FE044621466FF00400FEF74CFFEC
:101A2000FEF742FF054600221146FEF786FE0446F9
:101A300021466FF00300FEF73FFFFEF735FF054636
:101A400000221146FEF779FE044621466FF00100A0
:101A5000FEF732FFFEF728FF054600220F21FEF7B2
:101A60006CFE044621464FF0FF30FEF725FF0022B2
:101A700011461B20FFF7D0FA70BD000010B5012100
:101A80004FF4A010FFF7A4F801211048FFF7A0F8C9
:101A900001210E48401CFFF79BF801210B48801CD8
:101AA000FFF796F801210948401DFFF791F8012141
:101AB0004FF4C010FFF78CF801210548FFF788F8B4
:101AC00001210348801CFFF783F810BD11001400AA
:101AD0000C00180010B5FFF727F940F253103249F7
:101AE000086001214FF01C10FFF772F80120FFF78A
:101AF0000BFB2E48FFF73CF848B901210320FEF705
:101B000031FF00BF2948FFF733F80028FAD0002042
:101B1000FFF7FAFA00214FF01C10FFF759F80121E6
:101B20000420FEF71FFF00BF2148FFF721F801281E
:101B3000FAD101210846FEF715FF00BFFFF730F884
:101B40000028FBD001210020FEF70CFF00BF012080
:101B5000FFF70EF80128FAD11D210020FFF75AF8EF
:101B600001210220FEF7FEFE00BF1920FFF700F85A
:101B70000128FAD10020FEF7C3FE0020FEF7D4FEB4
:101B80000020FEF7C7FE0120FEF7D8FE0220FFF777
:101B9000FDF800BFFFF718F90228FBD10020FEF77F
:101BA000CDFEFFF7F1FC10BD002002400100200037
:101BB0000100240001480068704700001000002068
:101BC00010B500F001F810BD02480068401C014942
:101BD000086070471000002010B586B0002401A8EE
:101BE000FEF7F0FE0298C4080020FFF777FD4FF4DF
:101BF0007A70B4FBF0F0401E4FF0E0214861002005
:101C000088610846006940F00300086106B010BD15
:101C10001CB56846FFF754F901220921C806FFF7F1
:101C200096F902208DF8070000208DF804000220AC
:101C30008DF806000002009000208DF8050069462E
:101C40004FF09040FFF746F901220A214FF09040F3
:101C5000FFF77DF902208DF8070000208DF80400C1
:101C600002208DF806004002009000208DF805004B
:101C700069464FF09040FFF72DF900231A464FF4C4
:101C8000E1310C48FFF77AFD01210A48FFF7D7FD43
:101C900001210848FFF7CEFD00210648FFF7A4FD0B
:101CA00000210448FFF737FD01210248FFF72EFD10
:101CB0001CBD00000038014010B50120FFF7D6FD23
:101CC0000020FFF7C9FD0920FFF7DCFDFFF7BCFD91
:101CD00010BD000000000000000001020304060720
:101CE00008090000000001020304000000000102D6
:101CF000030402040608020C0810000000000000A3
:101D00000000010203040607080900002C1D00085A
:101D10000000002018000000E0080008441D000832
:101D20001800002010140000F00800080000000057
:101D300000000000000000000000000000000000A3
:041D400000127A0013
:04000005080000CD22
:00000001FF
