:020000040800F2
:1000000028040020E50000088D090008D30100083D
:1000100089090008CD0100087B0A000800000000E3
:10002000000000000000000000000000D1090008EE
:10003000D101000800000000CF090008D509000820
:10004000FF000008FF000008FF000008FF00000894
:10005000FF000008FF000008FF000008FF00000884
:1000600000000000FF000008FF000008FF0000087B
:10007000FF000008FF000008FF000008000000006B
:10008000FF000008FF00000800000000FF0000085B
:10009000FF000008FF000008FF000008FF00000844
:1000A000FF000008FF000008FF000008790A0008B0
:1000B000FF00000800000000000000000000000039
:1000C000FF00000800000000FF000008DFF810D06B
:1000D00000F06AF80048004789100008AFF300807C
:1000E000280400200648804706480047FEE7FEE750
:1000F000FEE7FEE7FEE7FEE7FEE7FEE7FEE7FEE7D8
:100100000D0A0008CD0000082DE9F05F054600202B
:1001100092469B4688460646814640241BE0284678
:1001200041464746224600F02FF853465A46C01A29
:10013000914110D311461846224600F016F82D1AA8
:1001400067EB01084F4622460120002100F00DF820
:1001500017EB00094E41201EA4F10104DFDC4846E4
:1001600031462A464346BDE8F09F202A04DB203A68
:1001700000FA02F1002070479140C2F1200320FAFA
:1001800003F3194390407047202A04DB203A21FAF8
:1001900002F00021704721FA02F3D040C2F12002A0
:1001A0009140084319467047064C074D06E0E06849
:1001B00040F0010394E8070098471034AC42F6D3AE
:1001C000FFF788FF204E0008404E000800BFFEE702
:1001D000704700BFFEE72DE9F04104460D46164684
:1001E0001F462A2000F084FB201200F0A7FBE0B29B
:1001F00000F0A4FB301200F0A1FBF0B200F09EFB77
:100200002B2000F075FB281200F098FBE8B200F0FC
:1002100095FB381200F092FBF8B200F08FFB2C2017
:1002200000F066FBBDE8F08170B506460F484088D7
:10023000401E83B20D480088401E82B2002108464D
:10024000FFF7C9FF00240CE0002504E0304600F071
:1002500033FB681C85B205484088A842F6DC601C68
:1002600084B202480088A042EEDC70BD1400002079
:1002700010B504467CB90020104988712C200881F3
:100280002A2048812B2088814FF4A07008804FF4E9
:10029000F07048800EE00120084988712C20088108
:1002A0002A2048812B2088814FF4F07008804FF479
:1002B000A0704880032000F0A3F910BD14000020B6
:1002C0002DE9FF4F85B081468A4600200390834682
:1002D0000798A0EB09050898A0EB0A06CDF808904E
:1002E000CDF804A0002D01DD012705E00DB90027A0
:1002F00002E04FF0FF376D42002E02DD4FF00108A3
:1003000006E016B94FF0000802E04FF0FF387642E1
:10031000B54201DD2C4600E03446002004901EE08A
:10032000019A91B2029A90B2129A00F01FF80398C3
:1003300028440390B3440398A04205DD0398001BB2
:100340000390029838440290A34504DDABEB040B04
:100350000198404401900498401C80B20490611CB4
:1003600004988842DCDB09B0BDE8F08F70B5044624
:100370000D4616462B46224629462046FFF72BFF00
:10038000304600F099FA70BD10B501214FF0904051
:1003900000F010FE782001F0DDF801214FF09040D0
:1003A00000F008FE782001F0D5F84FF6FF71804884
:1003B00000F000FED32000F09BFA00F0FDF87D492C
:1003C000888000F0F9F87B49888000F0F5F87949D9
:1003D0008880084680884FF6FF7101EA0020754941
:1003E000888000F0E9F8734989880843714988805A
:1003F000E02000F07DFA002000F05EFA072000F017
:100400005BFA102000F058FA092000F055FA172086
:1004100000F052FA0B2000F04FFA412000F04CFAA5
:10042000892000F049FA4B2000F046FA0A2000F03B
:1004300043FA0C2000F040FA0E2000F03DFA18209C
:1004400000F03AFA1B2000F037FA0F2000F034FADF
:10045000E12000F04DFA002000F02EFA172000F005
:100460002BFA1A2000F028FA042000F025FA0E20BA
:1004700000F022FA062000F01FFA2F2000F01CFAEC
:10048000452000F019FA432000F016FA022000F08F
:1004900013FA0A2000F010FA092000F00DFA3220B9
:1004A00000F00AFA362000F007FA0F2000F004FAF4
:1004B000F72000F01DFAA92000F0FEF9512000F00D
:1004C000FBF92C2000F0F8F9822000F0F5F9C020AB
:1004D00000F00EFA112000F0EFF9092000F0ECF91D
:1004E000C12000F005FA412000F0E6F9C52000F037
:1004F000FFF9002000F0E0F90A2000F0DDF980208B
:1005000000F0DAF9B12000F0F3F9B02000F0D4F9EE
:10051000112000F0D1F9B42000F0EAF9022000F037
:10052000CBF9B62000F0E4F9022000F0C5F9222052
:1005300000F0C2F93B2000F0BFF9B72000F0D8F975
:10054000C62000F0B9F9BE2000F0D2F9002000F07A
:10055000B3F9042000F0B0F9E92000F0C9F9002057
:1005600000F0AAF93A2000F0C3F9552000F0A4F9F0
:10057000362000F0BDF9082000F09EF9112000F0AF
:10058000B7F90120FFF774FE782000F0E3FF29207F
:1005900000F0AEF9112000F0ABF9C82000F0DAFF4E
:1005A000292000F0A5F94FF6FF70FFF73DFE10BDC2
:1005B000000400481400002010B50024002000F0C2
:1005C00019FE10214FF0904000F0F2FC04214FF092
:1005D000904000F0EDFC0948006884B204214FF01F
:1005E000904000F0E7FC10214FF0904000F0E2FC5A
:1005F000012000F0FFFD204610BD0000100400485F
:1006000070B50546002400264348807901280BD1A7
:100610004148808846F60401884205D03E488088DB
:1006200041F66311884208D13B488079F0B93A48D5
:10063000808841F66311884218D1082D15D2DFE871
:1006400005F00406080A0C0E101206250DE0072519
:100650000BE0042509E0052507E0012505E000255C
:1006600003E0032501E0022500BF00BF082D1CD2D6
:10067000DFE805F00406090C0F12151800BF14E09E
:1006800044F0800411E044F040040EE044F0C00463
:100690000BE044F0200408E044F0600405E044F07E
:1006A000A00402E044F0E00400BF00BF362644F09E
:1006B00008042146304600F05DF91749488900F0EA
:1006C00017F9002000F0F8F8002000F0F5F81249C2
:1006D0000988491EC1F30F2000F0EEF80E49097891
:1006E000491EC8B200F0E8F80B49888900F000F90B
:1006F000002000F0E1F8002000F0DEF8064949880B
:10070000491EC1F30F2000F0D7F803498978491E2C
:10071000C8B200F0D1F870BD140000202DE9FF5FD1
:1007200080468A4617469B460F9D00200290CDF8D2
:100730000080284605EBD071C1F347042046E2173C
:1007400004EB5272D2102146E31704EB5373DB1013
:10075000A4EBC3030BB1012300E000231A446A4356
:1007600092B20192A7F12000C7B20AEB0500401E29
:1007700083B208EB0400401E82B251464046FFF7A8
:100780002AFD002669E00C2D07D107EB470035490B
:1007900001EB8000805D03901BE0102D05D13248F5
:1007A00000EB0710805D039013E0182D07D107EBD5
:1007B00047002E4901EB0010805D039009E0202DD9
:1007C00005D12B4800EB8710805D039001E0BDE868
:1007D000FF9F4FF000093AE01098C8B9012000FAD5
:1007E00009F00399084018B1584600F065F802E096
:1007F0000E9800F061F80298401CC0B20290029876
:1008000090FBF4F104FB1100E8B90020029021E014
:10081000012000FA09F00399084020B15A465146D8
:100820004046FFF7A3FD08F101001FFA80F8009889
:10083000A8EB0000A04206D1DDF800800AF101001B
:100840001FFA80FA06E009F1010000F0FF09B9F192
:10085000080FC1DB00BF701C86B20198864292DB94
:1008600000BFB4E722190008961D0008862300087F
:10087000563500082DE9FE4F06460F4614469846A9
:10088000DDE90D5ADDF8309010E0CDE9015ACDF8E0
:1008900000902278434639463046FFF73FFF28460E
:1008A00005EBD07106EB61018EB2641C2078002844
:1008B000EBD1BDE8FE8F000010B5044610214FF0CB
:1008C000904000F075FB0948046008214FF090400B
:1008D00000F06EFB08214FF0904000F06BFB102100
:1008E0004FF0904000F066FB10BD0000140400487B
:1008F00010B5044602214FF0904000F059FB102142
:100900004FF0904000F054FB0B48046008214FF07A
:10091000904000F04DFB08214FF0904000F04AFB62
:1009200002214FF0904000F045FB10214FF0904025
:1009300000F040FB10BD00001404004810B5044650
:1009400010214FF0904000F033FB0948046008216B
:100950004FF0904000F02CFB08214FF0904000F049
:1009600029FB10214FF0904000F024FB10BD000047
:100970001404004870B505460C462846FFF7B8FF3A
:100980002046FFF799FF70BD00BFFEE77047F0B546
:1009900003460C4603F00701C1F10700042801D902
:1009A000042001E0C1F107000646081D072801D216
:1009B000002000E0C81E05460120B040401E204037
:1009C000A8400127AF407F1E17403843F0BD704755
:1009D0007047000010B50A480068401C08490860CC
:1009E000B0F57A7F08D10020086006480068064903
:1009F000086000200349086000F0EEFE10BD000012
:100A000000000020080000200400002017480068B3
:100A100020F00100401C1549086000BF1348006821
:100A2000C0F340000028F9D01048406820F00300CF
:100A30000E49486000BF0D484068C0F3810000289F
:100A4000F9D10A4800680A490840084908600020AE
:100A5000486041F61070C8624FF4801008634FF48C
:100A60001F008860C80303490860704700100240F7
:100A7000FFFFF2FE08ED00E0704700BFFEE7000058
:100A800002480068C0F30220704700000CED00E04F
:100A900010B5002804DB0A07130E054A135406E0BC
:100AA0000A07140E034A00F00F031B1FD45410BD95
:100AB00000E400E018ED00E002E008C8121F08C1E1
:100AC000002AFAD170477047002001E001C1121FCF
:100AD000002AFBD1704700000349496860F3071101
:100AE000014A516070470000001002400349496804
:100AF00060F30A21014A5160704700000010024073
:100B00000349496860F3CD21014A516070470000F4
:100B100000100240012807D10749496D21F030013A
:100B20003031054A516505E00349496D21F0300136
:100B3000014A51657047000000100240052827D285
:100B4000DFE800F0030A11181F00134A126861F36E
:100B50000002114B1A601CE00F4A126861F3104248
:100B60000D4B1A6015E00C4A126861F318620A4BCB
:100B70001A600EE0084A126A61F30002064B1A621C
:100B800007E0054A526A61F30002034B5A6200E033
:100B900000BF00BF70470000001002402DE9F04F79
:100BA00085B004460025AA46AB460026A94600208B
:100BB000049003900290019000F0F2F900900098E8
:100BC00020B1012812D0022875D112E05648406D9C
:100BD000C0F3402038B15448006BC0F3406010B1FE
:100BE0005248206001E05248206067E05048206091
:100BF00064E04D484068C0F3004B4B48C06AC00FEA
:100C000030BB49484068C0F3834547484068C0F35B
:100C1000417ABAF1000F01D10F2D04D14FEA0A1029
:100C2000401C054400E0AD1CBBF1000F03D141485E
:100C3000684320603DE03C484068C0F3404018B144
:100C40003C486843206034E039486843206030E025
:100C50003548C06AC0F3031003903348C06AC0F33C
:100C6000082002903048C06A00F007000190BBF1F4
:100C7000000F02D12F48049009E02B484068C0F3D0
:100C8000404010B12B48049001E029480490012114
:100C9000019801FA00F0039900FB01FC0299049805
:100CA000A0FB01700146624600233846FFF72CFA8C
:100CB000206003E0FFE71E48206000BF00BF1A4825
:100CC0004068C0F303161C4810F80690206820FA0C
:100CD00009F0606014484068C0F30226174810F815
:100CE0000690606820FA09F0E0600F484068C0F3A1
:100CF000C226134810F80690606820FA09F0A06038
:100D000009484068C0F3007607484068C0F3813066
:100D100040EA86060B4810F80690A068B0FBF9F090
:100D2000206105B0BDE8F08F00100240006CDC02CD
:100D300000127A0000093D00EA180008FA180008BD
:100D4000021900080A19000810B501460020094BD5
:100D500003EB1142126801F01F040123A3401A4063
:100D600001F01F040123A3409A4200D000E00120BB
:100D700010BD00000010024030B50024002500E046
:100D8000641C1120FFF7E0FF012802D0B4F5405F9A
:100D9000F6D31120FFF7D8FF012801D0002500E08D
:100DA0000125284630BD000010B501290DD10E4B9C
:100DB00003EB1042126800F01F040123A3401A4302
:100DC000094C04EB10431A600CE0074B03EB104294
:100DD000126800F01F040123A3409A43024C04EB65
:100DE00010431A6010BD00000010024030B50246EA
:100DF0000020002372B9354C646824F48034334DEC
:100E00006C6033482C46246B24F0007404F10074A9
:100E10002C6319E02D4C646824F4803404F580348C
:100E20002A4D6C60012A06D12A482C46646824F4B5
:100E300000346C6008E02648244C646824F40034D4
:100E400004F50034214D6C60234CA04204D9234C9E
:100E5000A04201D2002326E0214CA04204D9214C1B
:100E6000A04201D201231EE01F4CA04204D91F4C16
:100E7000A04201D2022316E01C4CA04204D91C4C13
:100E8000A04201D203230EE01A4CA04204D91A4C0E
:100E9000A04201D2042306E0174CA04203D9174C0C
:100EA000A04200D20523094C646861F39544074DC4
:100EB0006C600D09054C646865F35E74034D6C60ED
:100EC0002C46E46A63F31A64EC6230BD0010024001
:100ED00000093D0000127A0060823B00404B4C004C
:100EE00080584F00105E5F0094357700101B7F0024
:100EF00020BCBE00286BEE0030D73D01D8E9DC01F4
:100F00001648006820F00100401C1449086000BF2A
:100F100012480068C0F340000028F9D00F4840682C
:100F200020F003000D49486000BF0C484068C0F342
:100F300081000028F9D1094800680949084007499B
:100F400008600020486041F61070C8624FF48010BD
:100F500008634FF41F0088607047000000100240D3
:100F6000FFFFF2FE0D49496860F301010B4A516031
:100F700000BF00BF00BF00BF00BF00BF00BF00BF79
:100F800000BF00BF00BF00BF00BF00BF00BF00BF69
:100F900000BF00BF00BF00BF70470000001002404C
:100FA00002484068C0F38100704700000010024012
:100FB00081627047816170474FF6FF7101600021C7
:100FC0008171017141710121C171704770B50A468B
:100FD00000211488A3B233E003F001046CB3046869
:100FE0004E000325B540AC43046094794D00AC40FD
:100FF00005682C430460446801258D40AC4344607F
:10100000446815798D402C43446084684E00032564
:10101000B540AC438460D4794D00AC4085682C4326
:101020008460C4684E000325B540AC43C460547965
:101030004D00AC40C5682C43C4605B104C1CA1B291
:10104000002BC9DC70BDF0B5002300244D07ED0E68
:1010500002FA05F3CD105DB1456A4E07F70E0F2673
:10106000BE40B5434562456A45EA030444620AE06E
:10107000056A4E07F70E0F26BE40B5430562056AA6
:1010800045EA03040462F0BD0EB500F02FFB00F04A
:101090000FFB00F0A7FA00F0ABFB00F0C5FB00F07F
:1010A00017FC00F067FAAA210E4800F08DF9FFF74F
:1010B0006BF916E0012020214FF6FF724FF47843C0
:1010C000CDE90021029008A200210846FFF7D2FBDB
:1010D0004FF4784028231E22142100900A20FFF7A5
:1010E000EFF8E7E7003801404142434400000000C8
:1010F0002DE9F0470B4614464FF0000C00BF2C4A78
:101100001268C2F302211D4626460A46C2F10709AB
:10111000B9F1040F02D94FF0040901E0C2F1070947
:10112000C84602F10409B9F1070F02D24FF00009D5
:1011300001E0A2F103094F464FF0010909FA08F94D
:10114000A9F1010909EA050909FA07F94FF0010AAD
:101150000AFA07FAAAF1010A0AEA060A49EA0A099A
:10116000CC4601466246002904DB15072E0E114DC0
:101170006E5407E015072F0E0D4D0C3501F00F06CC
:10118000361FAF5500BF014600290DDB00BF00BF71
:1011900001F01F050122AA404D09AD0005F1E0252F
:1011A000C5F8002100BF00BF00BFBDE8F087000008
:1011B0000CED00E000E400E000BF00F00702064B89
:1011C00019684FF6FF031940044B0B4343EA022111
:1011D000014B196000BF70470CED00E00000FA05FC
:1011E0000349096860F30821014A11607047000053
:1011F000007000401CB504466846FFF7DDFE012C78
:1012000013D102208DF8070000208DF80400012082
:101210008DF806004FF6FF70009000208DF8050055
:1012200069460948FFF7D2FE0CE000208DF8060061
:101230004FF6FF70009001208DF8050069460248C6
:10124000FFF7C4FE1CBD0000000400482DE9FF5F4D
:10125000002400250026A146A246A34600200390B4
:1012600002900190FFF79CFE0090009820B10128A9
:1012700014D0022874D115E04348406DC0F34020DB
:1012800040B14148006BC0F3406018B13F4840494D
:10129000086002E03F483E49086065E03D483C493F
:1012A000086061E038484068C0F300463648C06ACC
:1012B000C00F20BB34484068C0F3834432484068C4
:1012C000C0F341750DB90F2C03D12801401C044413
:1012D00000E0A41C26B9304860432D4908603DE079
:1012E00029484068C0F3404020B12B48604328495A
:1012F000086033E027486043254908602EE0224813
:10130000C06AC0F3031003901F48C06AC0F30820EE
:1013100002901D48C06A00F00700019016B9DFF87E
:1013200078B009E018484068C0F3404010B1DFF8D9
:1013300068B001E0DFF85CB00121019801FA00F02B
:10134000039900FB01FC0298ABFB0070014662466A
:1013500000233846FEF7D8FE0D49086004E0FFE799
:101360000C480B49086000BF00BF07484068C0F345
:1013700003190A4810F809A00548006820FA0AF085
:1013800003490860BDE8FF9F00100240006CDC02CA
:101390001000002000127A0000093D001219000818
:1013A000042808D14FF0E021096941F004014FF011
:1013B000E022116107E04FF0E021096921F004010A
:1013C0004FF0E02211617047C1F30802426070479C
:1013D000C26861F34D32C260704741B9426922F47C
:1013E00080724261426922F40072426127E0012961
:1013F0000AD1426922F4807202F580724261426928
:1014000022F4007242611AE002290AD1426922F4F0
:1014100080724261426922F4007202F500724261F8
:101420000DE003290BD1426922F4807202F580722B
:101430004261426922F4007202F500724261704713
:101440002DE9F04385B004460F469046994668461C
:10145000FFF7A4FB1448844201D1029E00E0039EE2
:1014600006EB86004000B0FBF7F50A20B5FBF0F173
:1014700000FB1150052803D20A20B5FBF0F503E06C
:101480000A20B5FBF0F0451CA06865F30F00A060D2
:10149000E06868F30C30E060206969F30D3020618A
:1014A00005B0BDE8F08300000038014041B9C268D2
:1014B00022F40072C260C26822F48062C2601AE044
:1014C00001290AD1C26822F40072C260C26822F403
:1014D000806202F58062C2600DE002290BD1C26811
:1014E00022F4007202F50072C260C26822F48062C7
:1014F00002F58062C2607047C26861F38202C26016
:101500007047C26861F3C302C26070474AF6AA20FE
:1015100001490860704700000030004003494968F5
:1015200060F30201014A5160704700000030004042
:1015300018B90021034A116003E045F25551014AF0
:10154000116070470030004001498860704700001A
:101550000030004070B5044600F038F90546601CC4
:1015600000B1641C00BF00F031F9401BA042FAD367
:1015700070BD00001CB56846FFF71EFD1F214FF02F
:101580009040FFF715FD4FF6FF711548FFF710FD6E
:1015900002208DF8070000208DF8040001208DF84E
:1015A00006001F20009000208DF8050069464FF0CE
:1015B0009040FFF70BFD02208DF8070000208DF80A
:1015C000040001208DF806004FF6FF700090002007
:1015D0008DF8050069460248FFF7F8FC1CBD0000C5
:1015E0000004004870B50320FFF7E6FDFFF748FA56
:1015F000054600221146FFF7CAF9044621466FF05E
:101600000B00FFF745FAFFF73BFA054600221146AB
:10161000FFF7BDF9044621466FF00A00FFF738FADC
:10162000FFF72EFA054600221146FFF7B0F90446EF
:1016300021466FF00900FFF72BFAFFF721FA054664
:1016400000221146FFF7A3F9044621466FF004007B
:10165000FFF71EFAFFF714FA054600221146FFF7BE
:1016600096F9044621466FF00300FFF711FAFFF7E1
:1016700007FA054600221146FFF789F9044621467C
:101680006FF00100FFF704FAFFF7FAF905460022B0
:101690000F21FFF77CF9044621464FF0FF30FFF79A
:1016A000F7F9002211461B20FFF722FD70BD000054
:1016B00010B501210B48FFF777FB01210948401CB9
:1016C000FFF772FB01210748801CFFF76DFB01212A
:1016D0000448401DFFF768FB01210348FFF764FB46
:1016E00010BD0000110014000E00180010B5FFF727
:1016F00007FC40F253103249086001214FF01C10E2
:10170000FFF752FB0120FFF76BFD2E48FFF71CFB94
:1017100048B901210320FFF711FA00BF2948FFF75C
:1017200013FB0028FAD00020FFF75AFD00214FF0EC
:101730001C10FFF739FB01210420FFF7FFF900BF60
:101740002148FFF701FB0128FAD101210846FFF7E4
:10175000F5F900BFFFF710FB0028FBD001210020A6
:10176000FFF7ECF900BF0120FFF7EEFA0128FAD1EC
:101770001D210020FFF73AFB01210220FFF7DEF9CF
:1017800000BF1920FFF7E0FA0128FAD10020FFF787
:10179000A3F90020FFF7B4F90020FFF7A7F9012013
:1017A000FFF7B8F90220FFF7DDFB00BFFFF7F8FBFA
:1017B0000228FBD10020FFF7ADF9FFF747FD10BD70
:1017C00000200240010020000100240001480068C0
:1017D000704700000C00002010B500F001F810BDAB
:1017E00002480068401C0149086070470C00002056
:1017F00010B586B0002401A8FFF7D0F90298C408FC
:101800000020FFF7CDFD4FF47A70B4FBF0F0401EDE
:101810004FF0E0214861002088610846006940F0EF
:101820000300086106B010BD1CB56846FFF7C4FB95
:1018300001220921C806FFF706FC02208DF80700E7
:1018400000208DF8040002208DF8060000020090B0
:1018500000208DF8050069464FF09040FFF7B6FB79
:1018600001220A214FF09040FFF7EDFB02208DF896
:10187000070000208DF8040002208DF806004002C9
:10188000009000208DF8050069464FF09040FFF76A
:101890009DFB00231A464FF4E1310C48FFF7D0FDC1
:1018A00001210A48FFF72DFE01210848FFF724FE19
:1018B00000210648FFF7FAFD00210448FFF78DFDDF
:1018C00001210248FFF784FD1CBD000000380140E3
:1018D00010B50120FFF72CFE0020FFF71FFE0920A6
:1018E000FFF732FEFFF712FE10BD000000000000FF
:1018F00000000102030406070809000000000102BD
:101900000304000000000102030402040608020CA4
:101910000810000000000000000001020304060798
:1019200008090000000000000000000000000000A6
:101930000404040404000004000014140A0000005D
:1019400000000000000000000A0A1F0A0A1F0A0A1D
:10195000000000040E1505060C14150E040000000E
:1019600012150D152E2C2A1200000000040A0A364A
:1019700015152916000002020100000000000000F9
:1019800000001008080404040404080810000204FD
:101990000408080808080404020000000004150EEA
:1019A0000E150400000000000008083E08080000B2
:1019B0000000000000000000000002020100000022
:1019C0000000003F000000000000000000000000D8
:1019D00000000002000000201010080804040202A9
:1019E000010000000E1111111111110E0000000074
:1019F000040604040404040E000000000E11110883
:101A00000402011F000000000E11100C1010110E36
:101A100000000000080C0C0A091F081C0000000050
:101A20001F01010F1110110E000000000C12010D1A
:101A30001311110E000000001E1008080404040415
:101A4000000000000E11110E1111110E0000000017
:101A50000E11111916100906000000000000040004
:101A6000000000040000000000000004000000046A
:101A70000400000010080402020408100000000026
:101A800000003F003F0000000000000002040810BA
:101A900010080402000000000E11110804040004E4
:101AA000000000001C22292D2D1D221C000000001A
:101AB00004040C0A0A1E1233000000000F12120E5A
:101AC0001212120F000000001E1101010101110E7F
:101AD000000000000F1212121212120F000000007C
:101AE0001F120A0E0A02121F000000001F120A0E27
:101AF0000A020207000000001C1201013911120C39
:101B0000000000003312121E1212123300000000F7
:101B10001F0404040404041F000000003E08080819
:101B2000080808080907000037120A060A121237C7
:101B300000000000070202020202223F0000000033
:101B40003B1B1B1B15151535000000003B1216161C
:101B50001A1A1217000000000E1111111111110EA6
:101B6000000000000F12120E020202070000000027
:101B70000E1111111117190E180000000F12120E7C
:101B80000A121237000000001E1101060810110F82
:101B9000000000001F1504040404040E00000000EF
:101BA000331212121212120C000000003312120A29
:101BB0000A0C040400000000151515150E0A0A0A87
:101BC000000000001B0A0A04040A0A1B00000000AF
:101BD0001B0A0A0A0404040E000000001F0908047E
:101BE0000402121F00001C0404040404040404047E
:101BF0001C000002020404040808081010000E086B
:101C000008080808080808080E00040A0000000078
:101C100000000000000000000000000000000000C4
:101C2000003F02040000000000000000000000006F
:101C30000000000C121C123C000000030202020E05
:101C40001212120E000000000000001C1202120C02
:101C5000000000181010101C1212123C00000000AE
:101C60000000000C121E021C000000182404041EB8
:101C70000404041E000000000000003C120C021CC2
:101C8000221C00030202020E12121237000000048E
:101C9000040000060404040E000000080800000C04
:101CA00008080808080700030202021A0A060A13B5
:101CB00000000007040404040404041F00000000E2
:101CC0000000000F15151515000000000000000FA2
:101CD00012121237000000000000000C1212120C49
:101CE000000000000000000F1212120E0207000098
:101CF0000000001C1212121C103800000000001B13
:101D000006020207000000000000001E020C101E68
:101D1000000000000004041E0404041C0000000075
:101D20000000001B1212123C000000000000001B0B
:101D30000A0A04040000000000000015150E0A0A3B
:101D4000000000000000001B0A040A1B0000000045
:101D50000000003312120C08040300000000001EF3
:101D60000804041E000018080808080C08080808E1
:101D700018000808080808080808080808080604E1
:101D8000040404080404040406001609000000000A
:101D90000000000000000000000000000000000043
:101DA00000000000000000000008080808080808FB
:101DB00000001818000000486C2412000000000009
:101DC0000000000000000000002424247F121212F2
:101DD0007F12121200000000081C2A2A0A0C182880
:101DE000282A2A1C080800000022251515152A5843
:101DF0005454542200000000000C1212120A7625DE
:101E00002911916E00000006060403000000000086
:101E1000000000000000004020101008080808081A
:101E200008101020400000020408081010101010C4
:101E30001008080402000000000008086B1C1C6B5E
:101E400008080000000000000000080808087F08DB
:101E5000080808000000000000000000000000006A
:101E60000000060604030000000000000000FE0061
:101E70000000000000000000000000000000000062
:101E800000000606000000008040402020101008DE
:101E900008040402020000000018244242424242A8
:101EA000424224180000000000080E080808080834
:101EB0000808083E00000000003C4242422020107A
:101EC0000804427E00000000003C424220182040EE
:101ED0004042221C0000000000203028242422223E
:101EE0007E20207800000000007E0202021A2640B8
:101EF0004042221C0000000000382402021A264240
:101F00004242241800000000007E2222101008081F
:101F10000808080800000000003C4242422418243F
:101F20004242423C000000000018244242426458F1
:101F30004040241C000000000000000018180000B1
:101F40000000181800000000000000000008000059
:101F500000000008080400000040201008040204EB
:101F60000810204000000000000000007F0000007A
:101F70007F00000000000000000204081020402044
:101F80001008040200000000003C424246402010BD
:101F90001000181800000000001C225A5555555515
:101FA0002D42221C00000000000808181414243CD4
:101FB000224242E700000000001F2222221E22428D
:101FC0004242221F00000000007C42420101010148
:101FD0000142221C00000000001F224242424242F5
:101FE0004242221F00000000003F4212121E121245
:101FF0000242423F00000000003F4212121E121235
:102000000202020700000000003C222201010171CF
:102010002122221C0000000000E7424242427E4290
:10202000424242E700000000003E08080808080895
:102030000808083E00000000007C1010101010106E
:1020400010101010110F0000007722120A0E0A1251
:1020500012222277000000000007020202020202A0
:102060000202427F000000000077363636362A2A08
:102070002A2A2A6B0000000000E346464A4A5252D0
:102080005262624700000000001C22414141414170
:102090004141221C00000000003F424242423E02F9
:1020A0000202020700000000001C224141414141A0
:1020B0004D53321C60000000003F4242423E12126B
:1020C000222242C700000000007C42420204182085
:1020D0004042423E00000000007F4908080808080E
:1020E0000808081C0000000000E742424242424249
:1020F0004242423C0000000000E7424222242414F5
:102100001418080800000000006B4949494955555A
:10211000362222220000000000E74224241818186A
:10212000242442E70000000000772222141408084B
:102130000808081C00000000007E21201010080480
:102140000442423F00000078080808080808080810
:1021500008080808780000000202040408080810B3
:10216000102020204040001E1010101010101010E1
:10217000101010101E000038440000000000000085
:10218000000000000000000000000000000000004F
:102190000000000000FF0006080000000000000032
:1021A000000000000000000000000000003C427839
:1021B000444242FC0000000000030202021A2642D0
:1021C0004242261A000000000000000000384402CD
:1021D0000202443800000000006040404078444261
:1021E000424264D80000000000000000003C427E33
:1021F0000202423C0000000000F08808087E080847
:102200000808083E0000000000000000007C2222B8
:102210001C023C42423C000000030202023A4642D9
:10222000424242E700000000000C0C00000E0808CB
:102230000808083E00000000003030000038202070
:1022400020202020221E0000000302020272120A37
:102250001612227700000000000E0808080808087F
:102260000808083E0000000000000000007F929275
:10227000929292B70000000000000000003B46422E
:10228000424242E70000000000000000003C4242E1
:102290004242423C0000000000000000001B2642B9
:1022A0004242221E02070000000000000078444263
:1022B0004242447840E000000000000000774C04F7
:1022C0000404041F0000000000000000007C420223
:1022D0003C40423E0000000000000008083E0808A4
:1022E00008080830000000000000000000634242BF
:1022F000424262DC000000000000000000E74224CF
:1023000024140808000000000000000000EB494908
:10231000555522220000000000000000007624181D
:102320001818246E000000000000000000E742249E
:10233000241418080807000000000000007E221086
:102340000808447E000000C020202020201020200B
:1023500020202020C000101010101010101010109D
:1023600010101010101000060808080808100808BF
:102370000808080806000C32C20000000000000037
:10238000000000000000000000000000000000004D
:10239000000000000000000000000000000000003D
:1023A000000000000000000000000000000000002D
:1023B0000000000000000000000000000000E0003D
:1023C000E000E000E000E00040004000400040008D
:1023D00040004000000000000000E000E000E000DD
:1023E00000000000000000000000600660063003EE
:1023F0009801880044000000000000000000000078
:1024000000000000000000000000000000000000CC
:1024100000000000000000000000000000000000BC
:102420000802080208020802FE07FE070802080266
:1024300004010401FE07FE07040104010401040174
:10244000000000000000000000000000400040000C
:10245000F00158034C034C034C0058007000E0009E
:10246000C001C00140034C034C034C034801F00081
:1024700040004000000000000000000000000000DC
:102480000E030A01110191009100D1005100FA03DD
:10249000AE026004500450045804480488028403C7
:1024A000000000000000000000000000000000002C
:1024B00038006400640064006400A4031C010C0183
:1024C0001A019200B300E3006300C300A6041C03DA
:1024D000000000000000000000000C001C001000C4
:1024E00010000800060000000000000000000000CE
:1024F00000000000000000000000000000000000DC
:1025000000000000000000000000000400020001C4
:1025100080018000C000C0006000600060006000BA
:10252000600060006000C000C00080008001000109
:102530000002000400000000000002000400080087
:102540001800100030003000600060006000600083
:1025500060006000600030003000100018000800CB
:102560000400020000000000000000000000000065
:1025700000004000400040004E0E5C07F001F001FA
:102580005C074E0E400040004000000000000000CC
:10259000000000000000000000000000000000003B
:1025A0000000000040004000400040004000FE0FDE
:1025B00040004000400040004000000000000000DB
:1025C000000000000000000000000000000000000B
:1025D00000000000000000000000000000000000FB
:1025E000000000000000000000000C001C001000B3
:1025F00010000800060000000000000000000000BD
:102600000000000000000000000000000000FE07C5
:1026100000000000000000000000000000000000BA
:1026200000000000000000000000000000000000AA
:10263000000000000000000000000000000000009A
:10264000000000000000000000001C001C001C0036
:10265000000000000000000000000004000600026E
:102660000003000100018000800040004000600085
:102670002000200010001000080008000C000400DA
:102680000600020000000000000000000000000042
:10269000F00098010C030C03060606060606060663
:1026A00006060606060606060C030C039801F00053
:1026B000000000000000000000000000000000001A
:1026C000400060007C00600060006000600060000E
:1026D0006000600060006000600060006000FC035B
:1026E00000000000000000000000000000000000EA
:1026F000F800840102030603060300038001800141
:10270000C00020001000080204020202FE03FE03C3
:1027100000000000000000000000000000000000B9
:102720007800C4008601860186018001C000700027
:102730008001000100030603060306038401F8007C
:102740000000000000000000000000000000000188
:102750008001C001C001A0019001900188018401A5
:1027600084018201FE078001800180018001E00771
:102770000000000000000000000000000000000059
:10278000FC03FC030400040004000400F4008C01BA
:102790000403000300030603060382018401F8001A
:1027A0000000000000000000000000000000000029
:1027B000E00118030C030C0004000600E6011603F8
:1027C0000E0606060606060604060C021803F000AE
:1027D00000000000000000000000000000000000F9
:1027E000F807FC070C0204010401000180008000CE
:1027F0004000400040006000600060006000600039
:1028000000000000000000000000000000000000C8
:10281000F8010C030606060606060E023C03F0004D
:10282000CC01040306060606060606060C03F001A4
:102830000000000000000000000000000000000098
:10284000F0000C010C030602060606060606060743
:102850008C0678060006000300030C018C0178004A
:102860000000000000000000000000000000000068
:102870000000000000000000E000E000E0000000B8
:1028800000000000000000000000E000E000E000A8
:102890000000000000000000000000000000000038
:1028A0000000000000000000000060006000000068
:1028B0000000000000000000000000006000600058
:1028C00040002000000000000000000000000004A4
:1028D00000020001800040002000100008000400F9
:1028E00008001000200040008000000100020004E9
:1028F00000000000000000000000000000000000D8
:1029000000000000000000000000FE0700000000C2
:1029100000000000FE0700000000000000000000B2
:1029200000000000000000000000000000000400A3
:102930000800100020004000800000010002000498
:102940000002000180004000200010000800040088
:102950000000000000000000000000000000F00186
:102960000C0302060206060606060003800160004C
:1029700020002000200000000000700070007000A7
:102980000000000000000000000000000000000047
:10299000E00138060804CC0A640B2609260916094A
:1029A00016099609960566030C080C041802E00146
:1029B0000000000000000000000000000000000017
:1029C000600060007000D000D000C800880188015D
:1029D0008801F801040304030403040606060F0F2C
:1029E00000000000000000000000000000000000E7
:1029F000FF00860106030603060306038601FE00A8
:102A00000603060206060606060606060603FF017C
:102A100000000000000000000000000000000000B6
:102A2000E00718060C040C0404000600060006006B
:102A300006000600060006040C040C021801F00053
:102A40000000000000000000000000000000000086
:102A50007F0086010603060306060606060606062E
:102A6000060606060606060606030603C6017F00DE
:102A70000000000000000000000000000000000056
:102A8000FF03060206040600060086008600FE001C
:102A90008600860006000600060406040602FF0300
:102AA0000000000000000000000000000000000026
:102AB000FF03060306040604060086008600FE00E7
:102AC00086008600060006000600060006000F00CD
:102AD00000000000000000000000000000000000F6
:102AE000F00218030C020C020400060006000600A7
:102AF0000600C60F060306030C030C031803F000C0
:102B000000000000000000000000000000000000C5
:102B10000F0F060606060606060606060606FE074A
:102B200006060606060606060606060606060F0F33
:102B30000000000000000000000000000000000095
:102B4000FC036000600060006000600060006000E6
:102B50006000600060006000600060006000FC03D6
:102B60000000000000000000000000000000000065
:102B7000F00F8001800180018001800180018001CF
:102B8000800180018001800180018001800180013D
:102B90008601C6007C00000000000000000000006C
:102BA000CF070601860046004600260036003E009C
:102BB0006E00E600C600C6018601060306078F0FF9
:102BC0000000000000000000000000000000000005
:102BD0000F000600060006000600060006000600BC
:102BE0000600060006000600060406040602FF03AF
:102BF00000000000000000000000000000000000D5
:102C00000F0F0E070E070E079A069A069A069A06E7
:102C10005A06720672067206720622062206270FEE
:102C200000000000000000000000000000000000A4
:102C3000070E0E040E041A041A043204620462041D
:102C4000C204C20482050207020702060206070444
:102C50000000000000000000000000000000000074
:102C6000F00098010C030C0206060606060606068E
:102C700006060606060606060C020C039801F0007E
:102C80000000000000000000000000000000000044
:102C9000FF010603060606060606060606060603E6
:102CA000FE010600060006000600060006000F00F2
:102CB0000000000000000000000000000000000014
:102CC000F00098010C030C0206060606060606062E
:102CD00006060606060676064C028C038801F001FD
:102CE000800700030000000000000000000000005A
:102CF000FF01060306060606060606060603FE0094
:102D00006600C600C60086018601060306030F0E94
:102D100000000000000000000000000000000000B3
:102D2000F8040C070604060406000E003C00F00040
:102D3000C003000300060206020606060E03F201A7
:102D40000000000000000000000000000000000083
:102D5000FE076204610861086000600060006000B6
:102D60006000600060006000600060006000F000D3
:102D70000000000000000000000000000000000053
:102D80000F0E0604060406040604060406040604E0
:102D90000604060406040604060406040C02F801F0
:102DA0000000000000000000000000000000000023
:102DB0001F0F0E060C020C020C020C011801180168
:102DC00018011801B000B000B000F0006000600011
:102DD00000000000000000000000000000000000F3
:102DE000EF0E6604660466026602E602EC02EC027E
:102DF000DC01DC01DC01DC019C018800880088002A
:102E000000000000000000000000000000000000C2
:102E10009E070C03180118019800B00070006000B4
:102E20006000E000D000D001980188010C039E07EB
:102E30000000000000000000000000000000000092
:102E40001F0F0E060C020C0118011801B000B00093
:102E50007000600060006000600060006000F801C9
:102E60000000000000000000000000000000000062
:102E7000FC07040382038001C001C000C0006000A1
:102E8000600030003000180018041C040C02FE031F
:102E900000000000000000000000E007200020000B
:102EA0002000200020002000200020002000200022
:102EB0002000200020002000200020002000200012
:102EC0002000E007000000000000000000000400F7
:102ED000080008000800100010002000200020005A
:102EE00040004000800080008000000100010002DE
:102EF00000020002000400000000FC0080008000CE
:102F000080008000800080008000800080008000C1
:102F100080008000800080008000800080008000B1
:102F20008000FC00000000000000E000B00108028A
:102F30000000000000000000000000000000000091
:102F40000000000000000000000000000000000081
:102F50000000000000000000000000000000000071
:102F60000000000000000000000000000000000061
:102F70000000000000000000000000000000000051
:102F800000000000FF0F00000000180060000000BB
:102F90000000000000000000000000000000000031
:102FA0000000000000000000000000000000000021
:102FB0000000000000000000000000000000000011
:102FC00000000000000000000000F0010C030C03F2
:102FD000E00338030C030603060306038E0B7C0F85
:102FE00000000000000000000000000000000800D9
:102FF0000E000C000C000C000C00CC013C031C0665
:103000000C060C060C060C060C060C021C03F40144
:1030100000000000000000000000000000000000B0
:1030200000000000000000000000F0008C018C0196
:10303000860106000600060006020C020C01F000E4
:10304000000000000000000000000000000000027E
:103050008003000300030003000378038C030C03C8
:103060000603060306030603060304038C07780120
:103070000000000000000000000000000000000050
:1030800000000000000000000000E0011803080636
:103090000C06FC070C000C000C0018043802E001C0
:1030A0000000000000000000000000000000000020
:1030B000C0036006300630003000FE0330003000F0
:1030C0003000300030003000300030003000FC01B3
:1030D00000000000000000000000000000000000F0
:1030E00000000000000000000000F00E98090C0332
:1030F0000C030C039801F8000C007C00F803060692
:1031000006060E07F801000000000000000008009D
:103110000E000C000C000C000C00EC011C030C0356
:103120000C030C030C030C030C030C030C039E0791
:10313000000000000000000000000000000000008F
:10314000600060000000000000007C006000600083
:103150006000600060006000600060006000FC03D0
:10316000000000000000000000000000000000005F
:1031700080018001000000000000F001800180015A
:103180008001800180018001800180018001800137
:103190008001CC007C00000000000000000008005E
:1031A0000E000C000C000C000C00CC038C00CC00BA
:1031B0004C006C007C00DC00CC008C018C019E0774
:1031C00000000000000000000000000000004000BF
:1031D0007C006000600060006000600060006000D3
:1031E0006000600060006000600060006000FC0340
:1031F00000000000000000000000000000000000CF
:10320000000000000000000000007707EE066606E0
:103210006606660666066606660666066606EF0EBD
:10322000000000000000000000000000000000009E
:1032300000000000000000000000CE013C030C0371
:103240000C030C030C030C030C030C030C039E0770
:10325000000000000000000000000000000000006E
:1032600000000000000000000000F00098010C03C6
:10327000060606060606060606060C030C03F00004
:10328000000000000000000000000000000000003E
:1032900000000000000000000000EE011C030C060E
:1032A0000C060C060C060C060C060C031C03EC01A9
:1032B0000C000C003E0000000000000000000000B8
:1032C0000000000000000000000078028C030C03E6
:1032D0000603060306030603060304038C037803B0
:1032E00000030003C0070000000000000000000011
:1032F000000000000000000000009F075806380092
:103300001800180018001800180018001800FF0016
:1033100000000000000000000000000000000000AD
:1033200000000000000000000000F00718060C0478
:103330000C003800F0018003040604060C03FC01B5
:10334000000000000000000000000000000000007D
:1033500000002000200030003000FE01300030006E
:103360003000300030003000300030023002E00128
:10337000000000000000000000000000000000004D
:10338000000000000000000008028E030C030C0384
:103390000C030C030C030C030C030C039C077801B7
:1033A000000000000000000000000000000000001D
:1033B000000000000000000000003E0F1C06180284
:1033C0001802300130013001E000E000E000400070
:1033D00000000000000000000000000000000000ED
:1033E00000000000000000000000EF0DC604C6044D
:1033F000E604EC04AC039C039C039C030801080155
:1034000000000000000000000000000000000000BC
:1034100000000000000000000000BE071801980135
:10342000B00070006000E000D00098018803DE0763
:10343000000000000000000000000000000000008C
:1034400000000000000000000000BE071C01180181
:103450001801B000B000B000600060004000200023
:10346000200014001C00000000000000000000000C
:1034700000000000000000000000FC038401C40103
:10348000C000E00060007000300438041806FC033F
:103490000000000000000000000000038001800028
:1034A000800080008000800080008000C00020003C
:1034B000C0008000800080008000800080008000CC
:1034C0008001000300004000400040004000400038
:1034D00040004000400040004000400040004000EC
:1034E00040004000400040004000400040004000DC
:1034F000400040004000000000000C0018001000D8
:1035000010001000100010001000100030004000EB
:10351000300010001000100010001000100010000B
:1035200018000C00000000001C0024004208820467
:103530000007000000000000000000000000000084
:10354000000000000000000000000000000000007B
:10355000000000000000000000000000000000006B
:10356000000000000000000000000000000000005B
:10357000000000000000000000000000000000004B
:10358000000000000000000000000000000000003B
:10359000000000000000000000000000000000002B
:1035A000C001C001C001C001C001C001C001800054
:1035B000800080008000800080008000000000000B
:1035C000000000008001C003C00380010000000073
:1035D000000000000000000000000000E01CE01CF3
:1035E000F01E700E38071803080184000000000068
:1035F00000000000000000000000000000000000CB
:1036000000000000000000000000000000000000BA
:1036100000000000000000000000000000000000AA
:10362000000020102010201020102010FE7FFE7FB0
:103630001008100810081008100810081008FE7F65
:10364000FE7F0804080408040804080400000000C1
:103650000000000000000000000000000000000169
:103660000001C007601910311831183918393801B4
:103670007001E001C0038007000F001D0039003118
:103680001C311C310C310C11180DE0070001000138
:103690000001000000000000000000000000000029
:1036A00000001C1036186308630C63046304630293
:1036B00063026301361D9C37802280634063406350
:1036C00020632063306310221836081C00000000BD
:1036D00000000000000000000000000000000000EA
:1036E0000000F00098018C018C018C018C018C0091
:1036F000CC007800183E1C083608320863046304C6
:10370000C304C303834306438E26781C00000000D5
:103710000000000000000000000000001C003C0051
:103720003C003000300010000C00060000000000DB
:103730000000000000000000000000000000000089
:103740000000000000000000000000000000000079
:103750000000000000000000000000000040002009
:1037600000100008000C0004000600030003000322
:103770008001800180018001800180018001800141
:1037800000030003000300060006000C0008001000
:1037900000200040000000000000000002000400C3
:1037A00008001000300020006000C000C000C00011
:1037B0008001800180018001800180018001800101
:1037C000C000C000C00060006000300010000800B1
:1037D00004000200000000000000000000000000E3
:1037E00000000000000000018003800300011C7144
:1037F0003C79783DC0070001C007783D3C791C71D9
:103800000001800380038001000000000000000030
:1038100000000000000000000000000000000000A8
:103820000000000000000000000100010001000194
:10383000000100010001FC7F000100010001000106
:103840000001000100010000000000000000000075
:103850000000000000000000000000000000000068
:103860000000000000000000000000000000000058
:103870000000000000000000000000000000000048
:103880000000000000001C003C003C003000300044
:1038900010000C0006000000000000000000000006
:1038A0000000000000000000000000000000000018
:1038B000000000000000FE7F00000000000000008B
:1038C00000000000000000000000000000000000F8
:1038D00000000000000000000000000000000000E8
:1038E00000000000000000000000000000000000D8
:1038F00000000000000000000000000000000000C8
:103900000000000018003C003C001800000000000F
:103910000000000000000000000000000040006007
:1039200000200030001000180008000C0004000601
:1039300000020003000180018000C0004000600020
:10394000200030001000180008000C0004000600E1
:103950000200000000000000000000000000000065
:103960000000C007600C30181830183018200C60A8
:103970000C600C600C600C600C600C600C600C60E7
:103980001820183018303018600CC00700000000F4
:103990000000000000000000000000000000000027
:1039A000000000018001F801800180018001800198
:1039B00080018001800180018001800180018001FF
:1039C0008001800180018001C003F81F0000000019
:1039D00000000000000000000000000000000000E7
:1039E0000000E007101C0818043004300C300C30C4
:1039F00000300018000800040002000180004000B0
:103A00002020102008200430FC1FFC1F00000000B4
:103A100000000000000000000000000000000000A6
:103A20000000E003180E0C0C0C180C180C180018F1
:103A3000000C0006C003000E00180010003000301B
:103A40000C300C300C100C18180CE00300000000B7
:103A50000000000000000000000000000000000066
:103A60000000000C000E000E000F800E800E400EB5
:103A7000600E200E100E100E080E040E040EFE7FB7
:103A8000000E000E000E000E000E000EC07F0000A3
:103A90000000000000000000000000000000000026
:103AA0000000F03FF03F1000100010000800080078
:103AB000C807280C181808100030003000300030FB
:103AC0000C300C3004180418080CF003000000003F
:103AD00000000000000000000000000000000000E6
:103AE0000000800FC01020301030180018000800AF
:103AF0000C008C0F6C183C301C600C600C600C606F
:103B00000C601860182030306018C00700000000FA
:103B100000000000000000000000000000000000A5
:103B20000000F83FF83F1C100C08040804040004CF
:103B300000020002000100010001800080008000FE
:103B4000C000C000C000C000C000C00000000000F5
:103B50000000000000000000000000000000000065
:103B60000000E007300C18180C300C300C301C3002
:103B700038187008E007B007180E0C1C063806301D
:103B80000630063006300C18180CE0030000000068
:103B90000000000000000000000000000000000025
:103BA0000000E00318040C080C180610063006305C
:103BB0000630063006380C3C1836F031003000185C
:103BC000001800180C0C0C060C03F001000000009B
:103BD00000000000000000000000000000000000E5
:103BE00000000000000000000000000000000000D5
:103BF0008001C003C003800100000000000000003D
:103C0000000000008001C003C0038001000000002C
:103C100000000000000000000000000000000000A4
:103C20000000000000000000000000000000000094
:103C3000C000C00000000000000000000000000004
:103C40000000000000000000C000C00080008000F4
:103C500040004000000000000000000000000000E4
:103C60000020001000080004000600038001C000CE
:103C70006000300018000C00180030006000C00028
:103C8000800100030006000400080010002000006E
:103C90000000000000000000000000000000000024
:103CA0000000000000000000000000000000000014
:103CB000FE7F00000000000000000000FE7F00000A
:103CC00000000000000000000000000000000000F4
:103CD00000000000000000000000000000000000E4
:103CE00004000800100020006000C00080010003F4
:103CF0000006000C001800300018000C000600033D
:103D00008001C000600020001000080004000000D6
:103D100000000000000000000000000000000000A3
:103D2000C0073018083008600C601C601C601C6004
:103D30000030001C00060001800080008000800030
:103D4000000000008001C003C003800100000000EB
:103D50000000000000000000000000000000000063
:103D60000000C0076018103018200C2F8C4D864CB6
:103D7000C64CC64C664C6644664466266626661586
:103D8000CC1C0C40082018303018C0070000000080
:103D90000000000000000000000000000000000023
:103DA0000001C001C001C0014001600320032003E5
:103DB00020033006100610061006F80F080C080C39
:103DC000080C0C0C0418041806181F7C00000000D6
:103DD00000000000000000000000000000000000E3
:103DE0000000FE07181C183818301830183018302A
:103DF0001818180CF80718181830182018601860D0
:103E000018601860186018301818FE0F00000000C5
:103E100000000000000000000000000000000000A2
:103E20000000C0276038103018200C400C400400FF
:103E30000600060006000600060006000600060052
:103E40000C400C400C2018303018C0070000000057
:103E50000000000000000000000000000000000062
:103E60000000FE03180E18181830183018301860AB
:103E70001860186018601860186018601860186082
:103E80001830183018101818180EFE030000000023
:103E90000000000000000000000000000000000022
:103EA0000000FE3F1830182018601840180018084D
:103EB0001808180CF80F180C180818081800180023
:103EC00018001840184018201830FE3F000000006D
:103ED00000000000000000000000000000000000E2
:103EE0000000FE7F1870184018C0188018001810C5
:103EF00018101818F81F18181810181018001800A3
:103F0000180018001800180018007E0000000000BB
:103F100000000000000000000000000000000000A1
:103F20000000C013701C101018100C200C2004008E
:103F30000600060006000600060006FC06300630F5
:103F40000C300C30183018303008C007000000006A
:103F50000000000000000000000000000000000061
:103F600000003F7E0C180C180C180C180C180C18BC
:103F70000C180C180C18FC1F0C180C180C180C182A
:103F80000C180C180C180C180C183F7E00000000C0
:103F90000000000000000000000000000000000021
:103FA0000000F81F800180018001800180018001F4
:103FB00080018001800180018001800180018001F9
:103FC00080018001800180018001F81F0000000055
:103FD00000000000000000000000000000000000E1
:103FE0000000E07F0006000600060006000600064E
:103FF0000006000600060006000600060006000691
:1040000000060006000600060006000600060E0672
:104010000E038E01FC000000000000000000000004
:1040200000007E7C181818081804180618021801D9
:1040300098019801D801B803380318071806180E1C
:10404000180C181C1818183018307EFC00000000DE
:104050000000000000000000000000000000000060
:1040600000007E0018001800180018001800180042
:104070001800180018001800180018001800180080
:1040800018001840184018201830FE3F00000000AB
:104090000000000000000000000000000000000020
:1040A00000001FF81C381C381C381C3C34343434D5
:1040B0003434343674326432643264326431C4313C
:1040C000C431C431C430C43084309FFC00000000CF
:1040D00000000000000000000000000000000000E0
:1040E00000001F7C1C103C1034103410741064103D
:1040F000E410C410C41184118413041304170416AB
:10410000041E041C041C041C04181F1800000000DA
:10411000000000000000000000000000000000009F
:104120000000C003300C181808100C300C3006606A
:10413000066006600660066006600660066006604F
:104140000C200C3008101818300CC00300000000C0
:10415000000000000000000000000000000000005F
:104160000000FE0F181818301860186018601860EA
:10417000186018301818F80F1800180018001800E8
:10418000180018001800180018007E000000000039
:10419000000000000000000000000000000000001F
:1041A0000000C003300C18180C100C300C200660F6
:1041B00006600660066006600660066006600660CF
:1041C000E4612C331C321816300EC007004C007C02
:1041D00000380000000000000000000000000000A7
:1041E0000000FE07181C1838183018301830183026
:1041F0001818180CF807980318031807180618065B
:10420000180E180C180C181C18187E7800000000E6
:10421000000000000000000000000000000000009E
:104220000000E027303818300C200C200C000C0067
:1042300018007800E003800F001E00380070006056
:1042400004600460086018303818C80F00000000CF
:10425000000000000000000000000000000000005E
:104260000000FC3F8C2184618241824180018001F9
:104270008001800180018001800180018001800136
:1042800080018001800180018001E00700000000C2
:10429000000000000000000000000000000000001E
:1042A00000003F7C0C100C100C100C100C100C10AB
:1042B0000C100C100C100C100C100C100C100C101E
:1042C0000C100C100C1008083804E003000000006B
:1042D00000000000000000000000000000000000DE
:1042E00000003EF818201820182030103010301030
:1042F0003010600860086008E00CC004C004C0040E
:10430000800380038003800300010001000000009F
:10431000000000000000000000000000000000009D
:104320000000DFF38661862186218C210C218C23FD
:104330008C138C138C134C1358125816580E380EBD
:10434000380E380E300C1004100410040000000069
:10435000000000000000000000000000000000005D
:1043600000007E3E180838083004300470026002F5
:10437000E001C001C0018001800340034007200626
:104380002006100C100C081808183E7C00000000D5
:10439000000000000000000000000000000000001D
:1043A00000007E7C1C10181018083008300C7004B7
:1043B00060046002C002C002C0018001800180016F
:1043C00080018001800180018001E0070000000081
:1043D00000000000000000000000000000000000DD
:1043E0000000F83F18180818040C040E0006000717
:1043F000000380038001C001C000E0006000700085
:104400003000382018201C100C18FE1F000000007F
:10441000000000000000000000000000C03F40005D
:10442000400040004000400040004000400040008C
:10443000400040004000400040004000400040007C
:10444000400040004000400040004000400040006C
:10445000C03F00000000000000000000000000005D
:1044600008001800180010003000200060006000F4
:104470004000C000800080018001000100030002B4
:10448000000600060004000C0008001800180010C8
:10449000003000200000000000000000FC030002CB
:1044A00000020002000200020002000200020002FC
:1044B00000020002000200020002000200020002EC
:1044C00000020002000200020002000200020002DC
:1044D000FC03000000000000000000008007C00690
:1044E0002008101000000000000000000000000084
:1044F00000000000000000000000000000000000BC
:1045000000000000000000000000000000000000AB
:10451000000000000000000000000000000000009B
:10452000000000000000000000000000000000008B
:10453000000000000000000000000000000000007B
:10454000000000000000000000000000000000006B
:1045500000000000FFFF0000000000007800C00025
:10456000000100000000000000000000000000004A
:10457000000000000000000000000000000000003B
:10458000000000000000000000000000000000002B
:10459000000000000000000000000000000000001B
:1045A000000000000000000000000000000000000B
:1045B000F00318060C0C0C0C000C800F700C1C0C7B
:1045C0000C0C060C060C064C0C4FF83800000000D2
:1045D00000000000000000000000000000000000DB
:1045E00010001E001800180018001800180018000D
:1045F000180FD818383038601860186018601860C4
:1046000018601860182038307818C80700000000BB
:10461000000000000000000000000000000000009A
:10462000000000000000000000000000000000008A
:10463000C007700C181818180C180C000C000C008F
:104640000C000C20182018103008C00700000000D3
:10465000000000000000000000000000000000005A
:104660000010001E0018001800180018001800188C
:10467000E01B301C181818180C180C180C180C1803
:104680000C180C180818181C307AE00900000000FB
:10469000000000000000000000000000000000001A
:1046A000000000000000000000000000000000000A
:1046B000C007300C181808100C300C30FC3F0C00F0
:1046C0000C000C00182018107018C0070000000023
:1046D00000000000000000000000000000000000DA
:1046E0000000003E80C380C0C0C0C000C000C00049
:1046F000FC1FC000C000C000C000C000C000C0005F
:10470000C000C000C000C000C000F80F00000000E2
:104710000000000000000000000000000000000099
:104720000000000000000000000000000000000089
:10473000C077306C10181818181818181018300C8A
:10474000F00718001800F00FF03F08700C600C60C4
:104750000C603838E00F000000000000000000008E
:1047600010001E001800180018001800180018008B
:10477000980FD818383018301830183018301830D2
:10478000183018301830183018307EFC0000000047
:104790000000000000000000000000000000000019
:1047A000000080038003800300000000000000017F
:1047B000F801800180018001800180018001800179
:1047C00080018001800180018001F81F000000004D
:1047D00000000000000000000000000000000000D9
:1047E0000000003800380038000000000000001011
:1047F000801F001800180018001800180018001872
:1048000000180018001800180018001800180018E8
:10481000180C1806F0030000000000000000000063
:1048200010001E00180018001800180018001800CA
:10483000183E180C1806180318019801D8013803FF
:1048400018071806180C181C18187E7C00000000A9
:104850000000000000000000000000000000000058
:104860000001F80180018001800180018001800148
:104870008001800180018001800180018001800130
:1048800080018001800180018001F81F000000008C
:104890000000000000000000000000000000000018
:1048A0000000000000000000000000000000080000
:1048B000EE1C9C338C318C318C318C318C318C31B1
:1048C0008C318C318C318C318C31DE7B00000000DE
:1048D00000000000000000000000000000000000D8
:1048E00000000000000000000000000000001000B8
:1048F0001E0FD818383018301830183018301830CB
:10490000183018301830183018307EFC00000000C5
:104910000000000000000000000000000000000097
:104920000000000000000000000000000000000087
:10493000C007701C103018300C600C600C600C60EC
:104940000C600C60183018303018C00700000000F0
:104950000000000000000000000000000000000057
:104960000000000000000000000000000000100037
:104970009E0F58183830182018601860186018609A
:104980001860186018303830781898071800180028
:10499000180018007E000000000000000000000069
:1049A0000000000000000000000000000000000007
:1049B000C023303C183818300C300C300C300C3020
:1049C0000C300C3008301838303CE0330030003008
:1049D0000030003000FC000000000000000000007B
:1049E0000000000000000000000000000000600067
:1049F0007E3C60666061E000E00060006000600096
:104A000060006000600060006000FE0700000000C1
:104A10000000000000000000000000000000000096
:104A20000000000000000000000000000000000086
:104A3000E02730381830182018007000E003800F8D
:104A4000001C043004300C301C18EC0F0000000077
:104A50000000000000000000000000000000000056
:104A6000000000000000800080008000C000E00026
:104A7000FC1FC000C000C000C000C000C000C000DB
:104A8000C000C000C020C0208011000F0000000046
:104A90000000000000000000000000000000000016
:104AA00000000000000000000000000000001020D6
:104AB0001E3C1830183018301830183018301830A4
:104AC000183018301830183830F4E01300000000A7
:104AD00000000000000000000000000000000000D6
:104AE00000000000000000000000000000000000C6
:104AF0007E3C181818083808300430047002600230
:104B00006002E001C001C001C000800000000000A0
:104B10000000000000000000000000000000000095
:104B20000000000000000000000000000000000085
:104B3000DFF78E630C238C238C239813981358165D
:104B40005816700E700E700E200420040000000035
:104B50000000000000000000000000000000000055
:104B60000000000000000000000000000000000045
:104B7000FC3E70087004E004C002C00180038003A2
:104B800040076006200C100C18183E7E0000000044
:104B90000000000000000000000000000000000015
:104BA0000000000000000000000000000000000005
:104BB0007E7C18181808300830083004600460043F
:104BC000C002C002C002800180018001800080001C
:104BD00080004C003C0000000000000000000000CD
:104BE00000000000000000000000000000000000C5
:104BF000FC1F0C0C040E0406000380038001C0009F
:104C0000E0007020302038301C18FC1F000000002D
:104C1000000000000000000000000000003000085C
:104C20000004000400040004000400040004000464
:104C300000040004000280010002000400040004DB
:104C40000004000400040004000400040004000444
:104C50000008003000000001000100010001000117
:104C6000000100010001000100010001000100013C
:104C7000000100010001000100010001000100012C
:104C8000000100010001000100010001000100011C
:104C90000001000100010000000000000C001000F5
:104CA0002000200020002000200020002000200004
:104CB0002000200040008001400020002000200053
:104CC00020002000200020002000200020002000E4
:104CD00010000C00000000003800C4008640026193
:104CE0000022001C00000000000000000000000086
:104CF00000000000000000000000000000000000B4
:104D000000000000000000000000000000000000A3
:104D1000000000000000D6D0200020002000FE038C
:104D2000220222022202FE03220220002000200092
:104D3000D6D08000800080008000FC1F841084108A
:104D4000841084108410FC1F841080008000800078
:104D50008000D6D00000000000000018000008000D
:104D6000000800000800080818F8FF1F18081818A5
:104D70000818180818180818180818180818F8FF3C
:104D80001F080808000800000800000800000800CC
:104D9000001800001800001800000000D6D0000025
:104DA0000000000000000080000000800100008082
:104DB00001000080010000800100008001001080DF
:104DC000010CF0FFFF0F30800104308001043080BF
:104DD00001043080010430800104308001043080FF
:104DE000010430800104F0FFFF07308001043080AF
:104DF00001040080010000800100008001000080AB
:104E0000010000800100008001000080010000809E
:104E10000100008001000080000000000000000090
:104E2000404E00080000002014000000B80A0008EE
:104E3000544E00081400002014040000C80A0008A2
:104E40000000000000000000000000000000000062
:044E500000127A00D2
:04000005080000CD22
:00000001FF
