:020000040800F2
:1000000028140020E100000889200008F9040008F5
:1000100000000000000000000000000000000000E0
:100020000000000000000000000000004D2100085A
:1000300000000000000000008B2000087D23000865
:10004000F3000008F3000008F3000008F3000008C4
:10005000F3000008F3000008F3000008F3000008B4
:1000600000000000F3000008F3000008F30000089F
:10007000F3000008F3000008F3000008000000008F
:10008000F3000008F300000800000000F30000087F
:10009000F3000008F3000008F3000008F300000874
:1000A000F3000008F3000008F30000087D270008B3
:1000B000F300000800000000000000000000000045
:1000C000F300000800000000F30000080348854624
:1000D00000F0F2F800480047792B000828140020AF
:1000E0000448804704480047FEE7FEE7FEE7FEE7D6
:1000F000FEE7FEE781230008CD000008421C0178DE
:10010000401C0029FBD1801A7047024670B54A4056
:10011000D30FDB0740002DD04A002AD0010E140E69
:10012000000212020919400A520A8418E501044625
:100130005443000A120A2E045043A4194219200CF9
:10014000C543AA18120C0125AD03521C5219120402
:100150007F39240400D0521C104301D44000491EB2
:10016000C2B20C06C0092018401C4008802A02D0E8
:1001700003E0002070BD40084000002900DA0020A4
:10018000184370BD70B502464A40D50F40004A0082
:10019000ED0740085208002814D0002A12D0C40DE0
:1001A000D30D41020120C0055202490A520AE41A45
:1001B000091812187D34914201D3641C00E04900F3
:1001C000002C01DA002070BD0023914201D3891A6E
:1001D0000343400849000028F7D100290AD0914282
:1001E00002D10121C90705E0914201D2012101E0BC
:1001F0000121C943E005C018401900F01CF870BD8A
:1002000010B500229623114600F01DF810BD4100E4
:1002100040020122400AD205090E80187F2901DA26
:1002200000207047962903DC9622511AC840704777
:10023000963988407047002904DA401C490001D1F2
:1002400040084000704770B40024050C05D110240C
:10025000000402D1002921D01124050E01D1000291
:100260000834050F01D10001241D850F01D1800044
:10027000A41C002801DB4000641C002908D02025B4
:100280002E1B0D46F540A14000D001212943084313
:1002900001061B1B000ADB1D02D5002070BC704745
:1002A000DB05181880180029F8DA401C4900F5D140
:1002B00070BC400840007047064C0125064E05E022
:1002C000E36807CC2B430C3C98471034B442F7D377
:1002D000FFF700FF88710008A871000810B588B00A
:1002E0001E4800F047F80020029010200390019073
:1002F0001B48059000901B4A0A2006901E211F23D0
:10030000079301F03FFF039A05990698079B012484
:100310000494029401920091134A322101F032FFB9
:10032000049A05990698079B02921822019200915F
:100330000E4A462101F026FF049A05990698079B6C
:100340000292202201920091094A642101F01AFFD1
:1003500040F2B04002F0B8FA08B010BDFE6F0008DD
:10036000E0FF00005D700008C46F0008B06F000877
:100370009C6F000810B588B007905E480490028812
:100380001F2403940094002105911423069308462A
:1003900000F0D7F9049A0598538819461439128841
:1003A000009489B200F0CDF903990598079A0123CA
:1003B00002931023019300910221074B00F060F893
:1003C000049B059806991A885B88143B00909BB2A1
:1003D00000F0B7F908B010BDFFFF0000B0B588B05D
:1003E0001848FFF7C7FF00240294102004900190E2
:1003F0001F2005900090144A0A20069028214FF6ED
:100400000003079301F0BEFE049A05990698079B26
:1004100001250295019200910C4A462101F0B2FE9D
:10042000049A05990698079B029401920091084A44
:10043000642101F0A7FE40F2B04002F045FA08B096
:10044000B0BDC046EB6F0008546F00082A6F00086B
:10045000FC6E000880B584B00B4603A9088002A892
:10046000038001AB00931A800A880388104619465E
:1004700000F044F80098008801F044F904B080BD11
:10048000F0B58FB014460D46064616981599149A85
:100490000EAF3E800DAE049635800C940BAC0594E7
:1004A00023800AAC228009AD297008AE30700C9808
:1004B000FFF724FE0499059B07AA10800D480088C9
:1004C0001288D200801AC20F8018400806AA108035
:1004D0000E98069A801809880C9A1B8824882D7813
:1004E000367802960195009480B201F04BFE0FB071
:1004F000F0BDC0461C100020FFE7FEE710B588B035
:1005000007AC0094208006A80290018005A8019005
:10051000028004A8039003802A2001F083FA009847
:10052000407801F01FFC0098007801F01BFC019856
:10053000407801F017FC0198007801F013FC2B20A3
:1005400001F070FA0298407801F00CFC02980078F3
:1005500001F008FC0398407801F004FC039800784F
:1005600001F000FC08B010BDB0B590B01D460B46C0
:10057000149C0FA908800EA803800DAB1A800CAA4A
:1005800015800BAD2C800024099408941B880C88DE
:100590001B1B079312880388D21A069209880291BE
:1005A000008801900798012803DBFFE701200490F1
:1005B0000DE0079818B9FFE70020049006E000203E
:1005C000C0430490079840420790FFE7FFE7069872
:1005D000012803DBFFE7012003900DE0069818B91E
:1005E000FFE70020039006E00020C0430390069838
:1005F00040420690FFE7FFE707980699884203DD2F
:10060000FFE70798059002E006980590FFE70AA922
:1006100000200880FFE70AA800880599491C884245
:1006200032DAFFE702A8008801A909880BAA12881C
:1006300000F02CF807990998401809900699089835
:100640004018089009980599884209DDFFE7059947
:100650000998401A09900499029840180290FFE7FF
:1006600008980599884209DDFFE705990898401A1E
:1006700008900399019840180190FFE7FFE70A9856
:10068000401C0AA90880C6E710B0B0BD80B584B090
:100690000B4603A9088002A8038001AB00931A80CF
:1006A0000A88038810461946FFF728FF009800883B
:1006B00001F028F804B080BDB0B58CB001931546A8
:1006C0000A4601990346109C0BA8029003800AABCE
:1006D00004931A8009AA0392158008AD0595298014
:1006E00007A906910C8000881B8812880988009150
:1006F0001946FFF739FF029A0499059B069812885C
:1007000009881B88008800901046FFF72DFF02988B
:10071000039A059B069900881B8812880988009116
:100720001946FFF721FF039A0499059B0698128842
:1007300009881B88008800901046FFF715FF0CB051
:10074000B0BDB0B588B014460D4601460C9A07A856
:10075000018006A90D8005AD2C8004AC238003AB7D
:100760001A8000880988059A521E049B5B1E92B26B
:100770009BB2FFF7C3FE069802A90880FFE702A814
:10078000008804A9098888421BDAFFE7079801A9B5
:100790000880FFE701A8008805A9098888420ADACD
:1007A000FFE703A8008800F0ADFFFFE70198401CB9
:1007B00001A90880EEE7FFE70298401C02A9088023
:1007C000DDE708B0B0BD000080B594B0CE4802F0BF
:1007D00035FACE4802F032FACD4802F02FFA09205D
:1007E000C00606900123139319461A4602F0BEF87C
:1007F0000698139B00210F910322109202F0FDF83E
:100800000698139A114602F09FF8139AC148119066
:1008100048F200030093114602F0A8F8009B0F99DC
:10082000109A119802F0E9F800991198139A02F0C1
:100830008BF81198139A44F200030193114602F0C9
:1008400095F8019B0F99109A119802F0D6F801992A
:100850001198139A02F078F8139AAF48029042F276
:1008600000030393114602F081F80298039B0F994D
:10087000109A02F0C2F802980399139A02F064F8F1
:100880000698139A02230793114602F06FF8069810
:10089000079B0F99109A02F0B0F806980799139ADF
:1008A00002F052F81198139A41F200030493114692
:1008B00002F05CF8049B0F99109A119802F09DF8D1
:1008C00004991198139A02F03FF80698139A04239A
:1008D0000593114602F04AF8059B06980F99109A65
:1008E00002F08BF805990698139A02F02DF80698F5
:1008F000139A08230A93114602F038F806980A9BC7
:100900000F99109A02F079F806980A99139A02F052
:100910001BF80698139A10230B93114602F026F841
:1009200006980B9B0F99109A02F067F806980B999E
:10093000139A02F009F80698139A20230C93114693
:1009400002F014F806980C9B0F99109A02F055F8D3
:1009500006980C99139A01F0F7FF0698139A402312
:100960000D93114602F002F806980D9B0F99109A0C
:1009700002F043F806980D99139A01F0E5FF0698E6
:10098000139A80230E93114601F0F0FF06980E9BF8
:100990000F99109A02F031F806980E99139A01F007
:1009A000D3FF1198139B19461A4601F0DFFF0F99E8
:1009B000109A1198139B02F020F81198139A11467F
:1009C00001F0C2FF079B1198139A114601F0CEFF68
:1009D000079B0F99109A119802F00FF80799119838
:1009E000139A01F0B1FF1198139A40F20043089353
:1009F000114601F0BBFF089B0F99109A119801F066
:100A0000FCFF08991198139A01F09EFF1198139A10
:100A100040F600030993114601F0A8FF099B0F99C6
:100A2000109A119801F0E9FF09991198139A01F0B1
:100A30008BFF0A9B1198139A114601F097FF0A9BAE
:100A40000F99109A119801F0D8FF0A991198139AEA
:100A500001F07AFF0B9B1198139A114601F086FF63
:100A60000B9B0F99109A119801F0C7FF0B991198E1
:100A7000139A01F069FF0C9B1198139A114601F02B
:100A800075FF0C9B0F99109A119801F0B6FF0C9905
:100A90001198139A01F058FF0D9B1198139A114663
:100AA00001F064FF0D9B0F99109A119801F0A5FFBA
:100AB0000D991198139A01F047FF0E9B1198139A04
:100AC000114601F053FF0E9B0F99109A119801F0F7
:100AD00094FF0E991198139A01F036FF1198139A0A
:100AE00040F200131293114601F040FF0F99109A43
:100AF0001198129B01F081FF11981299139A01F03D
:100B000023FF14B080BDC04611050000120500008F
:100B100013050000000400480008004880B590B0AC
:100B2000FFF752FE09200090C0060D9002210E91A1
:100B300000220B9201F008FFC82001F0C5FE0D98BD
:100B40000E9901220F9201F0FFFE322001F0BCFE4F
:100B50000B9801F0FDFAE02000F064FF0B9800F024
:100B6000D1FD0720059000F0CDFD0F20069000F08C
:100B7000C9FD0D2000F0C6FD1B20019000F0C2FD54
:100B80000A20049000F0BEFD3C2000F0BBFD782060
:100B900000F0B8FD4A2000F0B5FD059800F0B2FD68
:100BA0000E2000F0AFFD009800F0ACFD019800F0C1
:100BB000A9FD1E2000F0A6FD069800F0A3FDE1208F
:100BC00000F030FF0B9800F09DFD2220089000F00F
:100BD00099FD242000F096FD0620039000F092FD80
:100BE000122000F08FFD059800F08CFD3620099052
:100BF00000F088FD4720029000F084FD029800F08C
:100C000081FD039800F07EFD049800F07BFD0598BF
:100C100000F078FD302000F075FD372000F072FD07
:100C2000069800F06FFDC02000F0FCFE1020079039
:100C300000F068FD079800F065FDC12000F0F2FEAD
:100C4000412000F05FFDC52000F0ECFE0B9800F0A5
:100C500059FD089800F056FD802000F053FD0998DA
:100C600000F0E0FE482000F04DFD3A2000F0DAFEF2
:100C7000552000F047FDB0200A9000F0D3FE0B98FD
:100C800000F040FDB12000F0CDFE0A9800F03AFDE2
:100C900011200C9000F036FDB42000F0C3FE0E9839
:100CA00000F030FDB62000F0BDFE0E9800F02AFDE9
:100CB0000E9800F027FDB72000F0B4FEC62000F02B
:100CC00021FDE92000F0AEFE0B9800F01BFDF7209F
:100CD00000F0A8FEA92000F015FD512000F012FD43
:100CE0002C2000F00FFD822000F00CFD0C9800F08D
:100CF00099FE292000F096FE0D980E990F9A01F0AA
:100D000023FE10B080BD0000F0B597B014460D462C
:100D100006461E991D9A1C9816AF01973E8015AE87
:100D20000296358014AD03952C7013AC238012AB62
:100D3000188011A80490027010AA11700CAA00214A
:100D400005911170169909AA1180007841080EA822
:100D5000069001700178C80807904907401C089068
:100D600009B907980890049B069A02990198039D77
:100D7000089E1C7874430AAE3480149C203C2C706E
:100D80000088098812788218521E1B78CB185B1EC7
:100D900092B29BB2FFF7B2FB05980BA90880FFE760
:100DA0000BA800880AA90988884200DBA9E011A8DD
:100DB00000780C280CD1FFE714A800780C214143DF
:100DC000544840180BA90988405C0FA9087034E00A
:100DD00011A8007810280BD1FFE714A800780101B2
:100DE0004B4840180BA90988405C0FA9087023E004
:100DF00011A8007818280CD1FFE714A8007830213A
:100E00004143424840180BA90988405C0FA908706B
:100E100011E011A8007820280BD1FFE714A8007872
:100E20008101394840180BA90988405C0FA9087056
:100E300000E066E0FFE7FFE7FFE70DA9002008708C
:100E4000FFE70DA80078072855DCFFE710A8007819
:100E500020BBFFE70FA800780DA90978C840C0079C
:100E600028B1FFE713A8008800F04CFC04E012A8AA
:100E7000008800F047FCFFE70C98411C0CA80170AB
:100E800000780EA90978B0FBF1F25143401A20B95D
:100E9000FFE70CA9002008702DE026E00FA80078DD
:100EA0000DA90978C840C00748B1FFE716A8008817
:100EB00015A9098813AA1288FFF7E8FBFFE716981F
:100EC000411C16A80180008809A90988401A0EA9AA
:100ED0000978884208D1FFE7099816A90880159873
:100EE000401C15A9088006E0FFE7FFE70D98401CAD
:100EF0000DA90870A5E7FFE70B98401C0BA9088017
:100F00004EE717B0F0BDC046BC4A0008EC380008F8
:100F1000FC320008882E0008F0B593B014460D4648
:100F200006461A99199A189812AF3E8011AE35806C
:100F300010940FAC23800EAB18800DA802700CAA81
:100F4000117009AA002101911170129905AA11804E
:100F500001780291C80803904907401C049009B920
:100F60000398049001980299049A514306AA1180AB
:100F700007AA0121118008A90880FFE708A80088B6
:100F800007A90988884200DBAAE008A800881A217E
:100F900041435448405C10990978884200D099E058
:100FA00008A800881A2141434E48401840781099FB
:100FB0004978884200D08DE012A8008811A90988DC
:100FC0000DAA1378C218521ECB185B1E92B29BB2A8
:100FD000FFF794FA0BA900200870FFE70BA8007830
:100FE00006A90988884274DAFFE70AA90020087078
:100FF000FFE70AA80078072865DCFFE70CA800785F
:1010000060BBFFE708A800881A2141433548401813
:101010000BA90978401880780AA90978C840C00748
:1010200028B1FFE70FA8008800F06CFB04E00EA8D1
:10103000008800F067FBFFE70998411C09A80170D0
:1010400000780DA90978B0FBF1F25143401A20B99C
:10105000FFE709A90020087035E02EE008A8008805
:101060001A2141431F4840180BA90978401880787D
:101070000AA90978C840C00748B1FFE712A800884C
:1010800011A909880FAA1288FFF700FBFFE7129841
:10109000411C12A80180008805A90988401A0DA9E1
:1010A0000978884208D1FFE7059812A908801198AD
:1010B000401C11A9088006E0FFE7FFE70A98401CE2
:1010C0000AA9087095E7FFE70B98401C0BA9087068
:1010D00084E7FFE7FFE70898401C08A908804DE770
:1010E00013B0F0BD80700008F0B593B014460D4603
:1010F00006461A99199A189812AF3E8011AE35809B
:1011000010940FAC23800EAB18800DA802700CAAAF
:10111000117009AA002101911170129905AA11807C
:1011200001780291C80803904907401C049009B94E
:101130000398049001980299049A514306AA1180D9
:1011400007AA0121118008A90880FFE708A80088E4
:1011500007A90988884200DBAAE008A800882221A4
:1011600041435448405C10990978884200D099E086
:1011700008A80088222141434E4840184078109921
:101180004978884200D08DE012A8008811A909880A
:101190000DAA1378C218521ECB185B1E92B29BB2D6
:1011A000FFF7ACF90BA900200870FFE70BA8007847
:1011B00006A90988884274DAFFE70AA900200870A6
:1011C000FFE70AA80078072865DCFFE70CA800788D
:1011D00060BBFFE708A8008822214143354840183A
:1011E0000BA90978401880780AA90978C840C00777
:1011F00028B1FFE70FA8008800F084FA04E00EA8E9
:10120000008800F07FFAFFE70998411C09A80170E7
:1012100000780DA90978B0FBF1F25143401A20B9CA
:10122000FFE709A90020087035E02EE008A8008833
:10123000222141431F4840180BA9097840188078A3
:101240000AA90978C840C00748B1FFE712A800887A
:1012500011A909880FAA1288FFF718FAFFE7129858
:10126000411C12A80180008805A90988401A0DA90F
:101270000978884208D1FFE7059812A908801198DB
:10128000401C11A9088006E0FFE7FFE70A98401C10
:101290000AA9087095E7FFE70B98401C0BA9087096
:1012A00084E7FFE7FFE70898401C08A908804DE79E
:1012B00013B0F0BD9A700008F0B593B014460D4617
:1012C00006461A99199A189812AF3E8011AE3580C9
:1012D00010940FAC23800EAB18800DA802700CAADE
:1012E000117009AA002101911170129905AA1180AB
:1012F00001780291C80803904907401C049009B97D
:101300000398049001980299049A514306AA118007
:1013100007AA0121118008A90880FFE708A8008812
:1013200007A90988884200DBAAE008A800884A21AA
:1013300041435448405C10990978884200D099E0B4
:1013400008A800884A2141434E4840184078109927
:101350004978884200D08DE012A8008811A9098838
:101360000DAA1378C218521ECB185B1E92B29BB204
:10137000FFF7C4F80BA900200870FFE70BA800785E
:1013800006A90988884274DAFFE70AA900200870D4
:10139000FFE70AA80078072865DCFFE70CA80078BB
:1013A00060BBFFE708A800884A2141433548401840
:1013B0000BA90978401880780AA90978C840C007A5
:1013C00028B1FFE70FA8008800F09CF904E00EA800
:1013D000008800F097F9FFE70998411C09A80170FF
:1013E00000780DA90978B0FBF1F25143401A20B9F9
:1013F000FFE709A90020087035E02EE008A8008862
:101400004A2141431F4840180BA9097840188078A9
:101410000AA90978C840C00748B1FFE712A80088A8
:1014200011A909880FAA1288FFF730F9FFE712986F
:10143000411C12A80180008805A90988401A0DA93D
:101440000978884208D1FFE7059812A90880119809
:10145000401C11A9088006E0FFE7FFE70A98401C3E
:101460000AA9087095E7FFE70B98401C0BA90870C4
:1014700084E7FFE7FFE70898401C08A908804DE7CC
:1014800013B0F0BDBC700008F0B593B014460D4623
:1014900006461A99199A189812AF3E8011AE3580F7
:1014A00010940FAC23800EAB18800DA802700CAA0C
:1014B000117009AA002101911170129905AA1180D9
:1014C00001780291C80803904907401C049009B9AB
:1014D0000398049001980299049A514306AA118036
:1014E00007AA0121118008A90880FFE708A8008841
:1014F00007A90988884200DBAAE008A800888221A1
:1015000041435448405C10990978884200D099E0E2
:1015100008A80088822141434E484018407810991D
:101520004978884200D08DE012A8008811A9098866
:101530000DAA1378C218521ECB185B1E92B29BB232
:10154000FEF7DCFF0BA900200870FFE70BA800786E
:1015500006A90988884274DAFFE70AA90020087002
:10156000FFE70AA80078072865DCFFE70CA80078E9
:1015700060BBFFE708A80088822141433548401836
:101580000BA90978401880780AA90978C840C007D3
:1015900028B1FFE70FA8008800F0B4F804E00EA817
:1015A000008800F0AFF8FFE70998411C09A8017016
:1015B00000780DA90978B0FBF1F25143401A20B927
:1015C000FFE709A90020087035E02EE008A8008890
:1015D000822141431F4840180BA9097840188078A0
:1015E0000AA90978C840C00748B1FFE712A80088D7
:1015F00011A909880FAA1288FFF748F8FFE7129887
:10160000411C12A80180008805A90988401A0DA96B
:101610000978884208D1FFE7059812A90880119837
:10162000401C11A9088006E0FFE7FFE70A98401C6C
:101630000AA9087095E7FFE70B98401C0BA90870F2
:1016400084E7FFE7FFE70898401C08A908804DE7FA
:1016500013B0F0BD0671000810B58AB00C46014603
:101660000C9809A8018008A90C8007AC228006AA62
:10167000138000220092019200880988079A82183C
:10168000521E069BCB185B1E92B29BB2FEF736FF32
:10169000009803A90880FFE703A8008807A9098824
:1016A00088422DDAFFE702A900200880FFE702A8A0
:1016B000008806A9098888421CDAFFE70C9801997E
:1016C0004900415C05A801700C9A019949008918EC
:1016D0004A7804A90A70007800020978401800F0DE
:1016E00011F80198401C0190FFE70298401C02A9E4
:1016F0000880DCE7FFE70398401C03A90880CBE7DC
:101700000AB010BD80B586B005A904910880C24812
:1017100042F20001002201F017F90498BF4A116853
:1017200040F20013994311600088C00B38B1FFE705
:10173000BA49086840F200121043086006E0B74951
:10174000086840F2001290430860FFE7B349086858
:1017500080229043086005984004C00F30B1FFE735
:10176000AE49086880221043086005E0AB4908686C
:10177000802290430860FFE7A84908684022904310
:10178000086005988004C00F30B1FFE7A3490868DE
:1017900040221043086005E0A049086840229043B9
:1017A0000860FFE79D49086820229043086005987B
:1017B000C004C00F30B1FFE79849086820221043E9
:1017C000086005E095490868202290430860FFE71B
:1017D0009249086810229043086005980005C00FE0
:1017E00030B1FFE78D49086810221043086005E01A
:1017F0008A490868102290430860FFE78749086813
:1018000008229043086005984005C00F30B1FFE7FB
:101810008249086808221043086005E07F4908688B
:10182000082290430860FFE77C49086840F6000200
:101830009043086005988005C00F38B1FFE77749ED
:10184000086840F600021043086006E07349086823
:1018500040F6000290430860FFE77049086840F2D4
:101860000042904308600598C005C00F38B1FFE7FB
:101870006A49086840F200421043086006E0674980
:10188000086840F2004290430860FFE76349086837
:1018900002229043086005980006C00F30B1FFE7B0
:1018A0005E49086802221043086005E05B49086849
:1018B000022290430860FFE75849086801229043DC
:1018C000086005984006C00F30B1FFE7534908682B
:1018D00001221043086005E0504908680122904346
:1018E0000860FFE74E490868802290430860059829
:1018F0008006C00F30B1FFE74949086880221043D5
:10190000086005E046490868802290430860FFE7C8
:10191000434908684022904308600598C006C00FFC
:1019200030B1FFE73E49086840221043086005E0F7
:101930003B490868402290430860FFE7384908683F
:1019400020229043086005980007C00F30B1FFE7E0
:101950003349086820221043086005E030490868D0
:10196000202290430860FFE7FD4908681022904359
:10197000086005984007C00F30B1FFE7F8490868D4
:1019800010221043086005E0F549086810229043D2
:101990000860FFE7F249086808229043086005984C
:1019A0008007C00F30B1FFE7ED49086808221043F7
:1019B000086005E0EA490868082290430860FFE7EC
:1019C000E749086804229043086005A80088C0071A
:1019D00030B1FFE7E249086804221043086005E0DF
:1019E000DF490868042290430860FFE7D948019066
:1019F00048F200010291002200F0A6FF019802992E
:101A00000122039200F0A0FF039AD34842F20001A2
:101A100000F09AFF06B080BD00080048140400489A
:101A20001400004880B586B005A904910880C94813
:101A300044F200010022039200F086FF039AC64898
:101A400042F2000100F080FF0498C44A116840F29D
:101A50000013994311600088C00B38B1FFE7BF49FC
:101A6000086840F200121043086006E0BB490868AD
:101A700040F2001290430860FFE7B84908688022EE
:101A80009043086005984004C00F30B1FFE7B349A8
:101A9000086880221043086005E0B0490868802289
:101AA00090430860FFE7AD49086840229043086012
:101AB00005988004C00F30B1FFE7A84908684022AC
:101AC0001043086005E0A54908684022904308607B
:101AD000FFE7A24908682022904308600598C004E7
:101AE000C00F30B1FFE79D4908682022104308600D
:101AF00005E09A490868202290430860FFE797496B
:101B0000086810229043086005980005C00F30B1A6
:101B1000FFE79249086810221043086005E08F49EA
:101B20000868102290430860FFE78C490868082283
:101B30009043086005984005C00F30B1FFE7874922
:101B4000086808221043086005E0844908680822F4
:101B500090430860FFE78149086840F6000290431F
:101B6000086005988005C00F38B1FFE77B49086819
:101B700040F600021043086006E07849086840F625
:101B8000000290430860FFE77449086840F2004291
:101B9000904308600598C005C00F38B1FFE76F4952
:101BA000086840F200421043086006E06B4908688C
:101BB00040F2004290430860FFE76849086802224B
:101BC0009043086005980006C00F30B1FFE76349F5
:101BD000086802221043086005E060490868022294
:101BE00090430860FFE75D49086801229043086060
:101BF00005984006C00F30B1FFE758490868012238
:101C00001043086005E055490868012290430860C8
:101C1000FFE75349086880229043086005988006D2
:101C2000C00F30B1FFE74E490868802210430860BA
:101C300005E04B490868802290430860FFE7484967
:101C400008684022904308600598C006C00F30B174
:101C5000FFE74349086840221043086005E0404917
:101C60000868402290430860FFE73D490868202249
:101C70009043086005980007C00F30B1FFE738496E
:101C8000086820221043086005E0FD49086820220A
:101C900090430860FFE7FA49086810229043086003
:101CA00005984007C00F30B1FFE7F54908681022DA
:101CB0001043086005E0F24908681022904308606C
:101CC000FFE7EF49086808229043086005988007FD
:101CD000C00F30B1FFE7EA490868082210430860E6
:101CE00005E0E7490868082290430860FFE7E449F7
:101CF000086804229043086005A80088C00730B136
:101D0000FFE7DF49086804221043086005E0DC496A
:101D10000868042290430860FFE7DA48019048F21F
:101D200000010091002200F00FFE009901980122AD
:101D3000029200F009FE0198029A44F2000100F0BC
:101D400003FE029ACC4842F2000100F0FDFD06B00D
:101D500080BDC04600040048000800481404004844
:101D60001400004880B586B005A904910880C248D7
:101D700042F20001002200F0E7FD0498BF4A11681A
:101D800040F20013994311600088C00B38B1FFE79F
:101D9000BA49086840F200121043086006E0B749EB
:101DA000086840F2001290430860FFE7B3490868F2
:101DB00080229043086005984004C00F30B1FFE7CF
:101DC000AE49086880221043086005E0AB49086806
:101DD000802290430860FFE7A849086840229043AA
:101DE000086005988004C00F30B1FFE7A349086878
:101DF00040221043086005E0A04908684022904353
:101E00000860FFE79D490868202290430860059814
:101E1000C004C00F30B1FFE7984908682022104382
:101E2000086005E095490868202290430860FFE7B4
:101E30009249086810229043086005980005C00F79
:101E400030B1FFE78D49086810221043086005E0B3
:101E50008A490868102290430860FFE787490868AC
:101E600008229043086005984005C00F30B1FFE795
:101E70008249086808221043086005E07F49086825
:101E8000082290430860FFE77C49086840F600029A
:101E90009043086005988005C00F38B1FFE7774987
:101EA000086840F600021043086006E073490868BD
:101EB00040F6000290430860FFE77049086840F26E
:101EC0000042904308600598C005C00F38B1FFE795
:101ED0006A49086840F200421043086006E067491A
:101EE000086840F2004290430860FFE763490868D1
:101EF00002229043086005980006C00F30B1FFE74A
:101F00005E49086802221043086005E05B490868E2
:101F1000022290430860FFE7584908680122904375
:101F2000086005984006C00F30B1FFE753490868C4
:101F300001221043086005E05049086801229043DF
:101F40000860FFE74E4908688022904308600598C2
:101F50008006C00F30B1FFE749490868802210436E
:101F6000086005E046490868802290430860FFE762
:101F7000434908684022904308600598C006C00F96
:101F800030B1FFE73E49086840221043086005E091
:101F90003B490868402290430860FFE738490868D9
:101FA00020229043086005980007C00F30B1FFE77A
:101FB0003349086820221043086005E0304908686A
:101FC000202290430860FFE72D49086810229043C3
:101FD000086005984007C00F30B1FFE7284908683E
:101FE00010221043086005E025490868102290433C
:101FF0000860FFE7224908680822904308600598B6
:102000008007C00F30B1FFE71D4908680822104360
:10201000086005E01A490868082290430860FFE755
:102020001749086804229043086005A80088C00783
:1020300030B1FFE71249086804221043086005E048
:102040000F490868042290430860FFE70D4801909B
:1020500048F200010291002200F076FC01980299FA
:102060000122039200F070FC039A034842F200013F
:1020700000F06AFC06B080BD000800481404004867
:10208000140000480004004870477047B0B58AB09B
:102090002948FEF76FF9B848028840881438274964
:1020A000009183B200201421FEF74BFB24480390DB
:1020B00000901E2104912823059308461A46FFF735
:1020C000CBFA01250295102401941E480690009039
:1020D0001D4A08922A204B2107911F23099300F0E3
:1020E00051F803980499059B00905A201A46FFF76F
:1020F000B3FA06980799089A099B029501940090F3
:10210000662000F03FF803980499059B0090962004
:102110001A46FFF7A1FA06980799089A099B0295B3
:1021200001940090A22000F02DF840F2B04000F0A1
:10213000CBFB0AB0B0BDC046D86F0008FFFF00005F
:102140007C620008E0FF00007E6F0008704700001E
:1021500081B06946087000988006800F40B1FFE7A3
:10216000EC4940F2E010088040F24010488007E05F
:10217000E84940F24010088040F2E0104880FFE754
:1021800001B07047F0B58FB014460D46064616985C
:102190001599149A0EAF3E800DAE35800C940BACA1
:1021A00023800AAB1A8009AA117008A908700E983A
:1021B00007A9088006A900200870FFE70C9800789E
:1021C00000B9D7E006A80078002853D1FFE70EA891
:1021D0000088D049098809AA12785208891A8842C9
:1021E0000ADCFFE70DA80088CA49498809AA1278C5
:1021F000891A884201DDFFE7BCE00C98007881284D
:1022000004DBFFE706A90120087032E00C98007893
:102210000D280DD1FFE709A801780D9840180DA9E8
:10222000088007980EA908800C98401C0C901CE0B0
:102230000EA8059000880DA909880C9A12780BAB9E
:102240001B880AAC248809AD04952D7808AE367831
:10225000029601950094FEF757FD049805990078C1
:1022600042080E9880180880FFE70C98401C0C90DC
:10227000FFE77EE00EA80088F549098809AA1278D0
:10228000891A88420ADCFFE70DA80088F0494988CE
:1022900009AA1278891A884201DDFFE76AE006A9D7
:1022A0000020087009A80078202813D1FFE70EA8A5
:1022B00000880DA909880C9A0BAB1B880AAC2488EE
:1022C00009AD2D7808AE3678029601950094FFF797
:1022D000DBF844E009A80078182813D1FFE70EA81E
:1022E00000880DA909880C9A0BAB1B880AAC2488BE
:1022F00009AD2D7808AE3678029601950094FEF768
:10230000DBFF2BE009A80078102813D1FFE70EA807
:1023100000880DA909880C9A0BAB1B880AAC24888D
:1023200009AD2D7808AE3678029601950094FEF737
:10233000DBFE12E00EA800880DA909880C9A0BABF1
:102340001B880AAC248809AD2D7808AE3678029631
:1023500001950094FEF7E0FDFFE7FFE7FFE70C982B
:10236000801C0C9009A801780E9840180EA90880CE
:10237000FFE723E70FB0F0BD1C10002070470000FE
:1023800080B582B020490868012210430860FFE749
:102390001D4800688007002801D4FFE7F8E71B49C3
:1023A00008681B4A1040086008681A4A1040086014
:1023B00015490868184A10400860184908680F2233
:1023C000904308601649086840F203129043086081
:1023D0000868012200921304984308600868D30734
:1023E000984308600F490868904308600E49002030
:1023F0000190086000F0A4FC00980199C00600F06C
:102400000DFC02B080BDC046001002400410024026
:102410000C00FF08FFFFC277FFFFF2FE2C10024006
:1024200030100240341002400810024080B586B0DF
:1024300005A903910020049008703548FDF79AFF24
:102440000498CA490A8849881439C94B00938BB249
:102450001421FEF776F9039904980870FFE705A8A0
:10246000007804281BDCFFE7C0490888400805AA5B
:10247000127819235343C018503849884908C9189D
:1024800032395300BC4AD25A002300931E2300F075
:10249000F9FAFFE70598401C05A90870DFE7B54881
:1024A00000F012FAB148028840881438B04900910F
:1024B00083B2002002901421FEF743F9029805A987
:1024C0000870FFE705A8007804281BDCFFE7A74990
:1024D0000888400805AA127819235343C0185038B9
:1024E00049884908C91832395300A34AD25A0123EE
:1024F00000931E2300F0C6FAFFE70598401C05A9CB
:102500000870DFE79B4800F0DFF906B080BDC046E9
:10251000247000081C100020F0B58BB04B48FDF76C
:1025200029FF92480690028840881438904900910B
:1025300083B20020049014210591FEF702F9069859
:1025400000883238012502951024019441490791F1
:10255000009180B2404A1E2108911F2609963346F9
:10256000FFF710FE40F2F4100A9000F0ADF9049865
:102570000599069B1A885B88143B00909BB2FEF776
:10258000E0F80698079A0899008832380295019475
:10259000009280B2314A3346FFF7F4FD0A9800F00A
:1025A00093F904980599069B1A885B88143B4FF6AB
:1025B000000700979BB2FEF7C4F80698079A08999F
:1025C0000088323802950194009280B2244A334642
:1025D000FFF7D8FD0A9800F077F904980599069B53
:1025E0001A885B88143B40F2E07700979BB2FEF7B5
:1025F000A8F80698079A089900883238029501943D
:10260000009280B2174A3346FFF7BCFD0A9800F0EB
:102610005BF904980599069B1A885B88143B009621
:102620009BB2FEF78EF80698079A0899099B0088D6
:10263000323802950194009280B20B4AFFF7A2FD56
:102640000A9800F041F90BB0F0BDC04611700008C7
:102650001C100020E0FF0000856F0008906F00084C
:10266000816F0008966F00088B6F0008B0B586B0C8
:1026700005A903910020049008703B48FDF77AFEFD
:1026800004983A490A8849881439394B00938BB227
:102690001421FEF756F8039904980870FFE705A87F
:1026A0000078042821DCFFE730490888400805AAA3
:1026B00014780F236343C2181046503849884908DC
:1026C000CB1819465039143A143B65002A4C645B08
:1026D000009480B289B292B29BB2FDF7EDFFFFE7A2
:1026E0000598401C05A90870D9E7224800F0ECF8CD
:1026F0001E480288408814381D49009183B200208A
:1027000002901421FEF71DF8029805A90870FFE752
:1027100005A80078042821DCFFE714490888400850
:1027200005AA14780F236343C2181046503849880D
:102730004908CB1819465039143A143B65000E4C21
:10274000645B009480B289B292B29BB2FDF7F9FF4C
:10275000FFE70598401C05A90870D9E7054800F077
:10276000B3F806B0B0BDC0463A7000081C10002097
:10277000FFFF0000DC0500000000002080B582B0F3
:102780001548164900F040FB01280AD1FFE712481E
:1027900000F010FB124B1A88511C19801149885403
:1027A000FFE70D48104900F02FFB012811D1FFE78A
:1027B0000948019000F0FEFA019809490B88094A7E
:1027C0000021D154094A01211170074900F0FCFA97
:1027D000FFE702B080BDC046003801400500050794
:1027E0001A10002018000020040004071810002010
:1027F00010B586B00446089805940491039202939C
:1028000001AA009210800598039940180499029B30
:10281000C918128880B289B2FDF71CFE009A05988B
:102820000399401A0499029BC918128880B289B290
:10283000FDF710FE009A0598039940180499029B31
:10284000C91A128880B289B2FDF704FE009A059871
:102850000399401A0499029BC91A128880B289B25E
:10286000FDF7F8FD009A0598029940180499039B1A
:10287000C918128880B289B2FDF7ECFD009A05985C
:102880000299401A0499039BC918128880B289B230
:10289000FDF7E0FD009A0598029940180499039B02
:1028A000C91A128880B289B2FDF7D4FD009A059842
:1028B0000299401A0499039BC91A128880B289B2FE
:1028C000FDF7C8FD06B010BD80B584B00390039835
:1028D000FDF796FC18490968FDF717FCFDF797FC12
:1028E0001649086016490020086016490120086052
:1028F000FFE7144800680290FFE7002002A909786A
:10290000C907019041B1FFE702A880780121084082
:10291000414248410190FFE70198C0070028E8D1F3
:10292000FFE7084908680122904308600449002035
:10293000086004B080BDC0461000002014E000E034
:1029400018E000E010E000E083B0029001916846DA
:102950000270007820B1FFE701980299886103E0D6
:10296000019802998862FFE703B0704787B006902C
:102970000591049203930698006801900698C06838
:10298000009002A900200880FFE702A800880F2815
:102990002BD8FFE702A801880398C840C007F0B110
:1029A000FFE702A801884900032213468B400199E2
:1029B00099430191059B018849008B400199194376
:1029C0000191018849008A4000999143009104993E
:1029D000008840008140009808430090FFE7FFE72F
:1029E0000298401C02A90880CFE701980699086068
:1029F00000980699C86007B0704710B586B005907A
:102A000004A80170039202930078012806D1FFE721
:102A1000029A059948681043486005E0029A0599B2
:102A2000486890434860FFE705988068009001A9D6
:102A300000200880FFE701A800880F281DD8FFE7C5
:102A400001A801880298C840C00780B1FFE701A82B
:102A50000188490003228A4000999143009103991B
:102A6000008840008140009808430090FFE7FFE79E
:102A70000198401C01A90880DDE70098059988604D
:102A800006B010BD10B58AB00C9C0990089107A83B
:102A90000280069300200590069804900698410055
:102AA0000320401A02900C98C0B3FFE7FFE7059897
:102AB0000499884231DCFFE705980390FFE703980B
:102AC000049988420EDCFFE709980899059A039B50
:102AD00007AC24880094FFF78BFEFFE70398401CA7
:102AE0000390ECE70298002807D5FFE702980599C4
:102AF00089004018801D02900BE002980599049A05
:102B0000891A890040180A3002900498401E0490E7
:102B1000FFE70598401C0590C9E72AE0FFE7059804
:102B20000499884224DCFFE709980899059A049BD8
:102B300007AC24880094FFF75BFE0298002807D5B5
:102B4000FFE70298059989004018801D02900BE06C
:102B500002980599049A891A890040180A3002904F
:102B60000498401E0490FFE70598401C0590D6E7A6
:102B7000FFE70AB010BD000080B584B000200190CE
:102B80000390029000F0F6F8FDF7C8FF01990C4899
:102B9000009040F2401240F2E0130846FDF7D1FDEC
:102BA000FFE700F00FF8FFF7B7FCFFF75FFDFFF757
:102BB0003DFCFDF713FCFDF791FBFFF767FAF0E72B
:102BC000E0FF000010B588B00124029410200390AB
:102BD00001901F20049000900E4A002005903C2197
:102BE0004FF600030693FDF74BFC039A04990598F2
:102BF000069B029401920091074A5A21FDF740FC7E
:102C000040F2E8300790FFF75FFE0798FFF75CFEA1
:102C100008B010BD507000081A6F000882B0019013
:102C2000009101980099034A114008430249086045
:102C300002B0704780FFFF1F08ED00E081B0014641
:102C40006846018000881F220146114001238B4005
:102C50008109374A88581843885001B07047C046E8
:102C600084B00020039002903149086801221204C8
:102C700010430860FFE70398401C03902C4800684D
:102C80000121490408400290FFE7029900200190C9
:102C900041B9FFE7039840F60001401A411E884100
:102CA0000190FFE70198C0070028E4D1FFE7204822
:102CB00000688003002802D4FFE7FFE7FEE71D4914
:102CC0000868022210430522904308601A490091C7
:102CD0000868086008680860086808600868174A9B
:102CE0001040086008681D22120410430860104953
:102CF00008680122120610430860FFE70C480068CC
:102D00008001002801D4FFE7F8E70B490868032297
:102D1000904308600868022210430860FFE70648F5
:102D200000680007002801D4FFE7F8E704B0704707
:102D3000001002400020024004100240FFFFC27752
:102D400080B5FFF78DFF80BD81B00090009804280A
:102D500006D1FFE70649086804221043086005E031
:102D600003490868042290430860FFE701B07047F8
:102D700010E000E080B50420C043FFF7E5FF0848FD
:102D80000068FDF73DFA0749FDF7FCF901460648E2
:102D9000016000680549FDF7B8F90549086080BD84
:102DA0000C0000200024F44A1400002000007A44A3
:102DB0001000002081B000900098406A014908404E
:102DC00001B07047FF01000082B0019000910098AF
:102DD0000C49884208D1FFE70199D022885848F26F
:102DE0000003984388500BE000981F210904084015
:102DF000000C012282400199086A10430862FFE733
:102E000002B0704709340F3410B585B003900291B9
:102E1000002001900090039802A909888909405870
:102E2000029C1F231C4001210A46A2401040019031
:102E30000398029A920D8058029A1B041A40120CB1
:102E4000914008400090009838B1FFE7019820B108
:102E5000FFE704A90120087003E004A9002008701E
:102E6000FFE704A8007805B010BD02E008C8121FF3
:102E700008C1002AFAD170477047002001E001C163
:102E8000121F002AFBD17047000000000000000064
:102E9000000000000000040404040400000400001A
:102EA00014140A00000000000000000000000A0ADC
:102EB0001F0A0A1F0A0A000000040E1505060C145A
:102EC000150E0400000012150D152E2C2A120000FC
:102ED0000000040A0A361515291600000202010036
:102EE00000000000000000001008080404040404AE
:102EF0000808100002040408080808080404020076
:102F000000000004150E0E1504000000000000086B
:102F1000083E08080000000000000000000000005B
:102F20000202010000000000003F0000000000005D
:102F3000000000000000000000020000002010104F
:102F4000080804040202010000000E111111111101
:102F5000110E00000000040604040404040E000026
:102F600000000E1111080402011F000000000E11E4
:102F7000100C1010110E00000000080C0C0A091FA4
:102F8000081C000000001F01010F1110110E0000AD
:102F900000000C12010D1311110E000000001E1094
:102FA000080804040404000000000E11110E1111A1
:102FB000110E000000000E11111916100906000074
:102FC00000000000040000000004000000000000F9
:102FD00000040000000404000000100804020204C1
:102FE00008100000000000003F003F00000000004B
:102FF00000000204081010080402000000000E1176
:10300000110804040004000000001C22292D2D1DBD
:10301000221C0000000004040C0A0A1E12330000E7
:1030200000000F12120E1212120F000000001E11EB
:1030300001010101110E000000000F121212121204
:10304000120F000000001F120A0E0A02121F0000D9
:1030500000001F120A0E0A020207000000001C12E4
:1030600001013911120C000000003312121E12125D
:103070001233000000001F0404040404041F0000B5
:1030800000003E0808080808080809070000371271
:103090000A060A12123700000000070202020202AA
:1030A000223F000000003B1B1B1B151515350000BF
:1030B00000003B1216161A1A1217000000000E111B
:1030C00011111111110E000000000F12120E020258
:1030D0000207000000000E1111111117190E18003F
:1030E00000000F12120E0A121237000000001E110B
:1030F00001060810110F000000001F15040404044D
:10310000040E00000000331212121212120C000002
:1031100000003312120A0A0C040400000000151506
:1031200015150E0A0A0A000000001B0A0A04040A08
:103130000A1B000000001B0A0A0A0404040E000017
:1031400000001F0908040402121F00001C040404EC
:103150000404040404041C0000020204040408081B
:10316000081010000E0808080808080808080E00D3
:10317000040A000000000000000000000000000041
:10318000000000000000003F0204000000000000FA
:103190000000000000000000000C121C123C0000A7
:1031A00000030202020E1212120E000000000000C4
:1031B000001C1202120C000000181010101C121239
:1031C000123C000000000000000C121E021C000057
:1031D00000182404041E0404041E00000000000063
:1031E000003C120C021C221C00030202020E1212EE
:1031F000123700000004040000060404040E00005E
:1032000000080800000C080808080807000302026C
:10321000021A0A060A130000000704040404040446
:10322000041F000000000000000F15151515000018
:1032300000000000000F1212123700000000000012
:10324000000C1212120C000000000000000F1212FD
:10325000120E020700000000001C1212121C10388F
:1032600000000000001B0602020700000000000032
:10327000001E020C101E000000000004041E0404C6
:10328000041C000000000000001B1212123C000091
:1032900000000000001B0A0A0404000000000000F7
:1032A0000015150E0A0A000000000000001B0A04A9
:1032B0000A1B000000000000003312120C08040377
:1032C00000000000001E0804041E00001808080882
:1032D000080C080808081800080808080808080862
:1032E000080808080604040404080404040406008A
:1032F00016090000000000000000000000000000AF
:1033000000000000000000000000000000000008B5
:1033100008080808080800001818000000486C2475
:103320001200000000000000000000000000002467
:1033300024247F1212127F12121200000000081CB7
:103340002A2A0A0C1828282A2A1C08080000002209
:10335000251515152A585454542200000000000C5D
:103360001212120A76252911916E00000006060439
:1033700003000000000000000000000000402010DA
:10338000100808080808081010204000000204086F
:1033900008101010101010080804020000000000AF
:1033A00008086B1C1C6B08080000000000000000EF
:1033B000080808087F08080808000000000000004E
:1033C00000000000000000000606040300000000EA
:1033D00000000000FE0000000000000000000000EF
:1033E0000000000000000000060600000000804011
:1033F00040202010100808040402020000000018F9
:103400002442424242424242241800000000000886
:103410000E08080808080808083E00000000003CE4
:103420004242422020100804427E00000000003C7E
:103430004242201820404042221C00000000002090
:103440003028242422227E20207800000000007EE4
:103450000202021A26404042221C000000000038EE
:103460002402021A26424242241800000000007E74
:103470002222101008080808080800000000003C7C
:103480004242422418244242423C000000000018FC
:103490002442424264584040241C000000000000C6
:1034A00000001818000000001818000000000000BC
:1034B00000000008000000000008080400000040B0
:1034C0002010080402040810204000000000000042
:1034D00000007F0000007F000000000000000002EC
:1034E0000408102040201008040200000000003CE6
:1034F0004242464020101000181800000000001C36
:10350000225A555555552D42221C00000000000836
:1035100008181414243C224242E700000000001F57
:103520002222221E22424242221F00000000007C72
:103530004242010101010142221C00000000001F63
:103540002242424242424242221F00000000003F0B
:103550004212121E12120242423F00000000003FBF
:103560004212121E12120202020700000000003C6A
:103570002222010101712122221C0000000000E72B
:10358000424242427E42424242E700000000003E88
:103590000808080808080808083E00000000007C29
:1035A00010101010101010101010110F00000077E4
:1035B00022120A0E0A1212222277000000000007CF
:1035C0000202020202020202427F000000000077B3
:1035D000363636362A2A2A2A2A6B0000000000E3F3
:1035E00046464A4A52525262624700000000001C9E
:1035F0002241414141414141221C00000000003F65
:10360000424242423E020202020700000000001C49
:103610002241414141414D53321C60000000003FB6
:103620004242423E1212222242C700000000007CA9
:103630004242020418204042423E00000000007F47
:103640004908080808080808081C0000000000E7EE
:103650004242424242424242423C0000000000E7F5
:103660004242222424141418080800000000006BB1
:10367000494949495555362222220000000000E7F9
:10368000422424181818242442E700000000007780
:103690002222141408080808081C00000000007EFC
:1036A0002120101008040442423F0000007808085E
:1036B000080808080808080808087800000002023E
:1036C000040408080810102020204040001E10109C
:1036D000101010101010101010101E0000384400B0
:1036E00000000000000000000000000000000000DA
:1036F0000000000000000000000000FF00060800BD
:1037000000000000000000000000000000000000B9
:103710000000003C4278444242FC000000000003EC
:103720000202021A26424242261A0000000000004D
:10373000000000384402020244380000000000602B
:10374000404040784442424264D8000000000000FB
:103750000000003C427E0202423C0000000000F0FB
:103760008808087E08080808083E000000000000DD
:103770000000007C22221C023C42423C000000036C
:103780000202023A4642424242E700000000000CB8
:103790000C00000E08080808083E00000000003079
:1037A00030000038202020202020221E00000003AE
:1037B00002020272120A1612227700000000000EA6
:1037C0000808080808080808083E00000000000073
:1037D0000000007F9292929292B7000000000000D9
:1037E0000000003B4642424242E700000000000069
:1037F0000000003C42424242423C00000000000007
:103800000000001B26424242221E02070000000068
:103810000000007844424242447840E0000000004A
:10382000000000774C040404041F000000000000A6
:103830000000007C42023C40423E000000000000CC
:103840000008083E080808080830000000000000D2
:10385000000000634242424262DC000000000000BF
:10386000000000E7422424140808000000000000C3
:10387000000000EB494955552222000000000000DD
:103880000000007624181818246E000000000000C4
:10389000000000E742242414180808070000000074
:1038A0000000007E22100808447E000000C0202096
:1038B00020202010202020202020C00010101010D8
:1038C0001010101010101010101010100006080822
:1038D0000808081008080808080806000C32C2008A
:1038E00000000000000000000000000000000000D8
:1038F00000000000000000000000000000000000C8
:1039000000000000000000000000000000000000B7
:1039100000000000000000000000000000000000A7
:1039200000000000E000E000E000E000E0004000F7
:103930004000400040004000400000000000000047
:10394000E000E000E00000000000000000000000D7
:103950006006600630039801880044000000000003
:103960000000000000000000000000000000000057
:103970000000000000000000000000000000000047
:103980000000000000000802080208020802FE070A
:10399000FE070802080204010401FE07FE070401F5
:1039A0000401040104010000000000000000000008
:1039B000000040004000F00158034C034C034C0051
:1039C00058007000E000C001C00140034C034C03EC
:1039D0004C034801F00040004000000000000000DF
:1039E0000000000000000E030A0111019100910087
:1039F000D1005100FA03AE02600450045004580490
:103A00004804880284030000000000000000000059
:103A100000000000000038006400640064006400DE
:103A2000A4031C010C011A019200B300E30063001F
:103A3000C300A6041C0300000000000000000000FA
:103A40000C001C0010001000080006000000000020
:103A50000000000000000000000000000000000066
:103A60000000000000000000000000000000000056
:103A700000040002000180018000C000C00060005E
:103A8000600060006000600060006000C000C00076
:103A9000800080010001000200040000000000001E
:103AA0000200040008001800100030003000600020
:103AB0006000600060006000600060003000300066
:103AC00010001800080004000200000000000000C0
:103AD00000000000000000004000400040004E0ECA
:103AE0005C07F001F0015C074E0E40004000400012
:103AF00000000000000000000000000000000000C6
:103B000000000000000000000000400040004000F5
:103B100040004000FE0F40004000400040004000D8
:103B20000000000000000000000000000000000095
:103B30000000000000000000000000000000000085
:103B40000000000000000000000000000000000075
:103B50000C001C001000100008000600000000000F
:103B60000000000000000000000000000000000055
:103B700000000000FE070000000000000000000040
:103B80000000000000000000000000000000000035
:103B90000000000000000000000000000000000025
:103BA0000000000000000000000000000000000015
:103BB0001C001C001C0000000000000000000000B1
:103BC00000040006000200030001000180008000E4
:103BD000400040006000200020001000100008009D
:103BE00008000C00040006000200000000000000B5
:103BF000000000000000F00098010C030C03060612
:103C000006060606060606060606060606060C0351
:103C10000C039801F000000000000000000000000C
:103C2000000000000000400060007C0060006000B8
:103C30006000600060006000600060006000600084
:103C400060006000FC0300000000000000000000B5
:103C5000000000000000F8008401020306030603D0
:103C6000000380018001C00020001000080204024F
:103C70000202FE03FE03000000000000000000003E
:103C80000000000000007800C40086018601860163
:103C90008001C000700080010001000306030603DC
:103CA00006038401F800000000000000000000008E
:103CB0000000000000018001C001C001A0019001CE
:103CC00090018801840184018201FE078001800146
:103CD00080018001E00700000000000000000000FB
:103CE000000000000000FC03FC03040004000400CA
:103CF0000400F4008C010403000300030603060320
:103D000082018401F80000000000000000000000B3
:103D1000000000000000E00118030C030C00040088
:103D20000600E60116030E0606060606060604064B
:103D30000C021803F000000000000000000000006A
:103D4000000000000000F807FC070C020401040159
:103D500000018000800040004000400060006000E2
:103D60006000600060000000000000000000000033
:103D7000000000000000F8010C0306060606060617
:103D80000E023C03F000CC010403060606060606FC
:103D900006060C03F0010000000000000000000017
:103DA000000000000000F0000C010C0306020606F3
:103DB0000606060606078C067806000600030003C2
:103DC0000C018C01780000000000000000000000E1
:103DD0000000000000000000000000000000E00003
:103DE000E000E00000000000000000000000000013
:103DF000E000E000E0000000000000000000000023
:103E000000000000000000000000000000000000B2
:103E100060006000000000000000000000000000E2
:103E20000000600060004000200000000000000072
:103E3000000000000004000200018000400020009B
:103E4000100008000400080010002000400080005E
:103E5000000100020004000000000000000000005B
:103E60000000000000000000000000000000000052
:103E7000FE070000000000000000FE070000000038
:103E80000000000000000000000000000000000032
:103E90000000000004000800100020004000800026
:103EA0000001000200040002000180004000200028
:103EB00010000800040000000000000000000000E6
:103EC00000000000F0010C030206020606060606CA
:103ED000000380016000200020002000000000009E
:103EE0007000700070000000000000000000000082
:103EF000000000000000E00138060804CC0A640B52
:103F000026092609160916099609960566030C085E
:103F10000C041802E0010000000000000000000096
:103F2000000000000000600060007000D000D000C1
:103F3000C800880188018801F80104030403040310
:103F4000040606060F0F000000000000000000003D
:103F5000000000000000FF008601060306030603C0
:103F600006038601FE00060306020606060606068E
:103F700006060603FF01000000000000000000002C
:103F8000000000000000E00718060C040C04040008
:103F900006000600060006000600060006040C04E3
:103FA0000C021801F00000000000000000000000FA
:103FB0000000000000007F008601060306030606DD
:103FC0000606060606060606060606060606060394
:103FD0000603C6017F000000000000000000000092
:103FE000000000000000FF030602060406000600B1
:103FF00086008600FE008600860006000600060495
:1040000006040602FF03000000000000000000009C
:10401000000000000000FF0306030604060406007B
:1040200086008600FE008600860006000600060068
:10403000060006000F000000000000000000000065
:10404000000000000000F00218030C020C02040043
:104050000600060006000600C60F060306030C0352
:104060000C031803F0000000000000000000000036
:104070000000000000000F0F0606060606060606F2
:1040800006060606FE0706060606060606060606D7
:10409000060606060F0F00000000000000000000EA
:1040A000000000000000FC03600060006000600091
:1040B0006000600060006000600060006000600000
:1040C00060006000FC030000000000000000000031
:1040D000000000000000F00F8001800180018001DD
:1040E00080018001800180018001800180018001C8
:1040F0008001800180018601C6007C000000000074
:10410000000000000000CF070601860046004600C0
:10411000260036003E006E00E600C600C60186019D
:10412000060306078F0F00000000000000000000DB
:104130000000000000000F00060006000600060058
:10414000060006000600060006000600060006043B
:1041500006040602FF03000000000000000000004B
:104160000000000000000F0F0E070E070E079A0652
:104170009A069A069A065A0672067206720672061F
:1041800022062206270F00000000000000000000A9
:10419000000000000000070E0E040E041A041A04AA
:1041A000320462046204C204C204820502070207E8
:1041B00002060206070400000000000000000000E4
:1041C000000000000000F00098010C030C0206063D
:1041D00006060606060606060606060606060C027D
:1041E0000C039801F0000000000000000000000037
:1041F000000000000000FF01060306060606060692
:10420000060606060603FE01060006000600060076
:10421000060006000F000000000000000000000083
:10422000000000000000F00098010C030C020606DC
:1042300006060606060606060606060676064C026C
:104240008C038801F00180070003000000000000DB
:10425000000000000000FF01060306060606060631
:1042600006060603FE006600C600C600860186013B
:10427000060306030F0E000000000000000000000F
:10428000000000000000F8040C0706040604060005
:104290000E003C00F000C003000300060206020608
:1042A00006060E03F20100000000000000000000FE
:1042B000000000000000FE07620461086108600061
:1042C00060006000600060006000600060006000EE
:1042D00060006000F000000000000000000000002E
:1042E0000000000000000F0E060406040604060489
:1042F000060406040604060406040604060406046E
:1043000006040C02F801000000000000000000009C
:104310000000000000001F0F0E060C020C020C0231
:104320000C011801180118011801B000B000B0000C
:10433000F0006000600000000000000000000000CD
:10434000000000000000EF0E6604660466026602CC
:10435000E602EC02EC02DC01DC01DC01DC019C0188
:1043600088008800880000000000000000000000B5
:104370000000000000009E070C03180118019800BF
:10438000B000700060006000E000D000D001980133
:1043900088010C039E0700000000000000000000E0
:1043A0000000000000001F0F0E060C020C01180197
:1043B0001801B000B0007000600060006000600094
:1043C00060006000F8010000000000000000000034
:1043D000000000000000FC07040382038001C0010C
:1043E000C000C000600060003000300018001804F9
:1043F0001C040C02FE03000000000000000000008E
:10440000E0072000200020002000200020002000E5
:10441000200020002000200020002000200020009C
:104420002000200020002000E00700000000000025
:104430000000000004000800080008001000100040
:10444000200020002000400040008000800080000C
:104450000001000100020002000200040000000050
:10446000FC008000800080008000800080008000D0
:10447000800080008000800080008000800080003C
:104480008000800080008000FC0000000000000030
:10449000E000B00108020000000000000000000081
:1044A000000000000000000000000000000000000C
:1044B00000000000000000000000000000000000FC
:1044C00000000000000000000000000000000000EC
:1044D00000000000000000000000000000000000DC
:1044E00000000000000000000000FF0F00000000BE
:1044F0001800600000000000000000000000000044
:1045000000000000000000000000000000000000AB
:10451000000000000000000000000000000000009B
:10452000000000000000000000000000000000008B
:10453000F0010C030C03E00338030C03060306032D
:1045400006038E0B7C0F000000000000000000003E
:104550000000000008000E000C000C000C000C0015
:10456000CC013C031C060C060C060C060C060C06C3
:104570000C021C03F4010000000000000000000019
:10458000000000000000000000000000000000002B
:10459000F0008C018C018601060006000600060270
:1045A0000C020C01F0000000000000000000000000
:1045B000000000000002800300030003000300036A
:1045C00078038C030C0306030603060306030603A5
:1045D00004038C07780100000000000000000000C8
:1045E00000000000000000000000000000000000CB
:1045F000E001180308060C06FC070C000C000C0078
:1046000018043802E0010000000000000000000073
:10461000000000000000C0036006300630003000DB
:10462000FE03300030003000300030003000300039
:1046300030003000FC01000000000000000000001D
:10464000000000000000000000000000000000006A
:10465000F00E98090C030C030C039801F8000C00F1
:104660007C00F803060606060E07F80100000000AD
:104670000000000008000E000C000C000C000C00F4
:10468000EC011C030C030C030C030C030C030C03C4
:104690000C030C039E070000000000000000000057
:1046A000000000000000600060000000000000004A
:1046B0007C006000600060006000600060006000DE
:1046C00060006000FC03000000000000000000002B
:1046D00000000000000080018001000000000000D8
:1046E000F001800180018001800180018001800152
:1046F0008001800180018001CC007C00000000006E
:104700000000000008000E000C000C000C000C0063
:10471000CC038C00CC004C006C007C00DC00CC0096
:104720008C018C019E0700000000000000000000CA
:104730000000000040007C0060006000600060003D
:104740006000600060006000600060006000600069
:1047500060006000FC03000000000000000000009A
:104760000000000000000000000000000000000049
:104770007707EE066606660666066606660666063F
:1047800066066606EF0E0000000000000000000054
:104790000000000000000000000000000000000019
:1047A000CE013C030C030C030C030C030C030C03A1
:1047B0000C030C039E070000000000000000000036
:1047C00000000000000000000000000000000000E9
:1047D000F00098010C030606060606060606060605
:1047E0000C030C03F00000000000000000000000BB
:1047F00000000000000000000000000000000000B9
:10480000EE011C030C060C060C060C060C060C062E
:104810000C031C03EC010C000C003E000000000027
:104820000000000000000000000000000000000088
:1048300078028C030C030603060306030603060333
:1048400004038C03780300030003C007000000008A
:104850000000000000000000000000000000000058
:104860009F07580638001800180018001800180094
:1048700018001800FF000000000000000000000009
:104880000000000000000000000000000000000028
:10489000F00718060C040C003800F0018003040631
:1048A00004060C03FC0100000000000000000000F2
:1048B0000000000000000000200020003000300058
:1048C000FE01300030003000300030003000300099
:1048D00030023002E0010000000000000000000093
:1048E00000000000000000000000000000000802BE
:1048F0008E030C030C030C030C030C030C030C03BE
:104900000C039C077801000000000000000000007C
:104910000000000000000000000000000000000097
:104920003E0F1C0618021802300130013001E00071
:10493000E000E00040000000000000000000000077
:104940000000000000000000000000000000000067
:10495000EF0DC604C604E604EC04AC039C039C0300
:104960009C03080108010000000000000000000096
:104970000000000000000000000000000000000037
:10498000BE0718019801B00070006000E000D00080
:1049900098018803DE07000000000000000000000E
:1049A0000000000000000000000000000000000007
:1049B000BE071C0118011801B000B000B000600073
:1049C000600040002000200014001C0000000000D7
:1049D00000000000000000000000000000000000D7
:1049E000FC038401C401C000E000600070003004DA
:1049F00038041806FC03000000000000000000005E
:104A00000003800180008000800080008000800022
:104A10008000C0002000C000800080008000800076
:104A20008000800080008001000300004000400002
:104A30004000400040004000400040004000400076
:104A40004000400040004000400040004000400066
:104A500040004000400040004000400000000000D6
:104A60000C001800100010001000100010001000C2
:104A70001000300040003000100010001000100046
:104A800010001000100018000C00000000001C00B6
:104A9000240042088204000700000000000000001B
:104AA0000000000000000000000000000000000006
:104AB00000000000000000000000000000000000F6
:104AC00000000000000000000000000000000000E6
:104AD00000000000000000000000000000000000D6
:104AE00000000000000000000000000000000000C6
:104AF00000000000000000000000000000000000B6
:104B0000000000000000C001C001C001C001C001E0
:104B1000C001C00180008000800080008000800013
:104B2000800000000000000000008001C003C003FE
:104B300080010000000000000000000000000000F4
:104B40000000E01CE01CF01E700E3807180308017E
:104B500084000000000000000000000000000000D1
:104B60000000000000000000000000000000000045
:104B70000000000000000000000000000000000035
:104B80000000000000000000201020102010201065
:104B90002010FE7FFE7F1008100810081008100873
:104BA00010081008FE7FFE7F0804080408040804AB
:104BB00008040000000000000000000000000000E9
:104BC0000000000000010001C00760191031183119
:104BD0001839183938017001E001C0038007000F4F
:104BE000001D003900311C311C310C310C11180D25
:104BF000E0070001000100010000000000000000CB
:104C000000000000000000001C1036186308630C50
:104C100063046304630263026301361D9C378022D0
:104C20008063406340632063206330631022183642
:104C3000081C000000000000000000000000000050
:104C40000000000000000000F00098018C018C01C1
:104C50008C018C018C00CC007800183E1C083608B2
:104C6000320863046304C304C303834306438E26EC
:104C7000781C0000000000000000000000000000A0
:104C800000001C003C003C003000300010000C0014
:104C9000060000000000000000000000000000000E
:104CA0000000000000000000000000000000000004
:104CB00000000000000000000000000000000000F4
:104CC00000000040002000100008000C0004000656
:104CD0000003000300038001800180018001800146
:104CE000800180018001000300030003000600062C
:104CF000000C000800100020004000000000000030
:104D000000000200040008001000300020006000D5
:104D1000C000C000C00080018001800180018001CE
:104D2000800180018001C000C000C0006000600000
:104D30003000100008000400020000000000000025
:104D400000000000000000000000000000018003DF
:104D5000800300011C713C79783DC0070001C00749
:104D6000783D3C791C7100018003800380010000C4
:104D70000000000000000000000000000000000033
:104D80000000000000000000000000000000000122
:104D9000000100010001000100010001FC7F000191
:104DA00000010001000100010001000100000000FD
:104DB00000000000000000000000000000000000F3
:104DC00000000000000000000000000000000000E3
:104DD00000000000000000000000000000000000D3
:104DE0000000000000000000000000001C003C006B
:104DF0003C003000300010000C00060000000000F5
:104E000000000000000000000000000000000000A2
:104E1000000000000000000000000000FE7F000015
:104E20000000000000000000000000000000000082
:104E30000000000000000000000000000000000072
:104E40000000000000000000000000000000000062
:104E50000000000000000000000000000000000052
:104E60000000000000000000000018003C003C00B2
:104E7000180000000000000000000000000000001A
:104E80000000004000600020003000100018000802
:104E9000000C0004000600020003000180018000F5
:104EA000C000400060002000300010001800080022
:104EB0000C000400060002000000000000000000DA
:104EC0000000000000000000C007600C301818301F
:104ED000183018200C600C600C600C600C600C60CA
:104EE0000C600C600C601820183018303018600C02
:104EF000C0070000000000000000000000000000EB
:104F0000000000000000000000018001F8018001A5
:104F10008001800180018001800180018001800189
:104F20008001800180018001800180018001C00337
:104F3000F81F00000000000000000000000000005A
:104F40000000000000000000E007101C08180430FA
:104F500004300C300C30003000180008000400024F
:104F60000001800040002020102008200430FC1F99
:104F7000FC1F000000000000000000000000000016
:104F80000000000000000000E003180E0C0C0C18DC
:104F90000C180C180018000C0006C003000E0018B6
:104FA0000010003000300C300C300C100C18180CB5
:104FB000E00300000000000000000000000000000E
:104FC0000000000000000000000C000E000E000FAA
:104FD000800E800E400E600E200E100E100E080E79
:104FE000040E040EFE7F000E000E000E000E000EDA
:104FF000000EC07F00000000000000000000000064
:105000000000000000000000F03FF03F1000100022
:10501000100008000800C807280C181808100030F5
:105020000030003000300C300C3004180418080C2C
:10503000F00300000000000000000000000000007D
:105040000000000000000000800FC0102030103071
:105050001800180008000C008C0F6C183C301C6005
:105060000C600C600C600C60186018203030601808
:10507000C007000000000000000000000000000069
:105080000000000000000000F83FF83F1C100C0872
:1050900004080404000400020002000100010001F1
:1050A000800080008000C000C000C000C000C000C0
:1050B000C000000000000000000000000000000030
:1050C0000000000000000000E007300C18180C3051
:1050D0000C300C301C3038187008E007B007180E80
:1050E0000C1C063806300630063006300C18180C3A
:1050F000E0030000000000000000000000000000CD
:105100000000000000000000E00318040C080C1868
:105110000610063006300630063006380C3C1836CD
:10512000F03100300018001800180C0C0C060C03AD
:10513000F00100000000000000000000000000007E
:10514000000000000000000000000000000000005F
:105150000000000000008001C003C00380010000C7
:10516000000000000000000000008001C003C00338
:1051700080010000000000000000000000000000AE
:10518000000000000000000000000000000000001F
:10519000000000000000C000C0000000000000008F
:1051A0000000000000000000000000000000C0003F
:1051B000C0008000800040004000000000000000AF
:1051C000000000000000002000100008000400069D
:1051D00000038001C0006000300018000C001800BF
:1051E00030006000C00080010003000600040008D9
:1051F000001000200000000000000000000000007F
:10520000000000000000000000000000000000009E
:10521000000000000000FE7F000000000000000011
:105220000000FE7F00000000000000000000000001
:10523000000000000000000000000000000000006E
:1052400000000000000004000800100020006000C2
:10525000C000800100030006000C00180030001898
:10526000000C000600038001C00060002000100058
:105270000800040000000000000000000000000022
:10528000000000000000C0073018083008600C6003
:105290001C601C601C600030001C000600018000C7
:1052A000800080008000000000008001C003C00377
:1052B000800100000000000000000000000000006D
:1052C0000000000000000000C00760181030182027
:1052D0000C2F8C4D864CC64CC64C664C66446644BE
:1052E000662666266615CC1C0C400820183030183F
:1052F000C0070000000000000000000000000000E7
:105300000000000000000001C001C001C001400118
:105310006003200320032003300610061006100649
:10532000F80F080C080C080C0C0C041804180618CC
:105330001F7C0000000000000000000000000000D2
:105340000000000000000000FE07181C183818308C
:105350001830183018301818180CF80718181830AA
:105360001820186018601860186018601830181835
:10537000FE0F000000000000000000000000000020
:105380000000000000000000C02760381030182026
:105390000C400C4004000600060006000600060053
:1053A0000600060006000C400C400C201830301897
:1053B000C007000000000000000000000000000026
:1053C0000000000000000000FE03180E181818303E
:1053D000183018301860186018601860186018606D
:1053E0001860186018601830183018101818180E47
:1053F000FE030000000000000000000000000000AC
:105400000000000000000000FE3F18301820186067
:105410001840180018081808180CF80F180C18086D
:1054200018081800180018001840184018201830E4
:10543000FE3F00000000000000000000000000002F
:105440000000000000000000FE7F1870184018C027
:1054500018801800181018101818F81F18181810AD
:10546000181018001800180018001800180018006C
:105470007E000000000000000000000000000000AE
:105480000000000000000000C013701C1010181075
:105490000C200C2004000600060006000600060092
:1054A00006FC063006300C300C301830183030084E
:1054B000C007000000000000000000000000000025
:1054C00000000000000000003F7E0C180C180C18B3
:1054D0000C180C180C180C180C180C18FC1F0C18B5
:1054E0000C180C180C180C180C180C180C180C189C
:1054F0003F7E0000000000000000000000000000EF
:105500000000000000000000F81F80018001800101
:105510008001800180018001800180018001800183
:105520008001800180018001800180018001800173
:10553000F81F000000000000000000000000000054
:105540000000000000000000E07F000600060006EA
:10555000000600060006000600060006000600061B
:10556000000600060006000600060006000600060B
:10557000000600060E060E038E01FC00000000006F
:1055800000000000000000007E7C181818081804B5
:1055900018061802180198019801D801B8033803B9
:1055A00018071806180E180C181C18181830183080
:1055B0007EFC000000000000000000000000000071
:1055C00000000000000000007E0018001800180015
:1055D000180018001800180018001800180018000B
:1055E000180018001800180018401840182018302B
:1055F000FE3F00000000000000000000000000006E
:1056000000000000000000001FF81C381C381C3887
:105610001C3C3434343434343436743264326432BE
:1056200064326431C431C431C431C430C4308430D4
:105630009FFC0000000000000000000000000000CF
:1056400000000000000000001F7C1C103C10341003
:10565000341074106410E410C410C4118411841345
:10566000041304170416041E041C041C041C041850
:105670001F180000000000000000000000000000F3
:105680000000000000000000C003300C18180810D3
:105690000C300C300660066006600660066006602E
:1056A0000660066006600C200C3008101818300CDC
:1056B000C003000000000000000000000000000027
:1056C0000000000000000000FE0F181818301860DD
:1056D000186018601860186018301818F80F180053
:1056E00018001800180018001800180018001800FA
:1056F0007E0000000000000000000000000000002C
:105700000000000000000000C003300C18180C104E
:105710000C300C20066006600660066006600660BD
:10572000066006600660E4612C331C321816300EE9
:10573000C007004C007C00380000000000000000A2
:105740000000000000000000FE07181C1838183088
:105750001830183018301818180CF8079803180368
:10576000180718061806180E180C180C181C18180C
:105770007E78000000000000000000000000000033
:105780000000000000000000E027303818300C2036
:105790000C200C000C0018007800E003800F001EA5
:1057A0000038007000600460046008601830381829
:1057B000C80F000000000000000000000000000012
:1057C0000000000000000000FC3F8C218461824149
:1057D000824180018001800180018001800180017F
:1057E00080018001800180018001800180018001B1
:1057F000E0070000000000000000000000000000C2
:1058000000000000000000003F7C0C100C100C1089
:105810000C100C100C100C100C100C100C100C10A8
:105820000C100C100C100C100C100C100808380484
:10583000E003000000000000000000000000000085
:1058400000000000000000003EF81820182018207A
:105850003010301030103010600860086008E00C24
:10586000C004C004C00480038003800380030001DF
:105870000001000000000000000000000000000027
:105880000000000000000000DFF386618621862111
:105890008C210C218C238C138C138C134C135812D9
:1058A0005816580E380E380E380E300C10041004EE
:1058B00010040000000000000000000000000000D4
:1058C00000000000000000007E3E18083808300488
:1058D000300470026002E001C001C0018001800359
:1058E0004003400720062006100C100C081808186A
:1058F0003E7C0000000000000000000000000000EE
:1059000000000000000000007E7C1C101810180829
:105910003008300C700460046002C002C002C00194
:10592000800180018001800180018001800180016F
:10593000E007000000000000000000000000000080
:105940000000000000000000F83F18180818040CC0
:10595000040E00060007000380038001C001C000A0
:10596000E000600070003000382018201C100C1877
:10597000FE1F00000000000000000000000000000A
:105980000000C03F40004000400040004000400098
:105990004000400040004000400040004000400007
:1059A00040004000400040004000400040004000F7
:1059B000400040004000C03F000000000000000028
:1059C000000000000000080018001800100030005F
:1059D0002000600060004000C00080008001800165
:1059E000000100030002000600060004000C00088D
:1059F0000018001800100030002000000000000017
:105A00000000FC030002000200020002000200028B
:105A10000002000200020002000200020002000276
:105A20000002000200020002000200020002000266
:105A3000000200020002FC03000000000000000061
:105A400000008007C00620081010000000000000C1
:105A50000000000000000000000000000000000046
:105A60000000000000000000000000000000000036
:105A70000000000000000000000000000000000026
:105A80000000000000000000000000000000000016
:105A90000000000000000000000000000000000006
:105AA00000000000000000000000000000000000F6
:105AB00000000000000000000000FFFF00000000E8
:105AC00000007800C000000100000000000000009D
:105AD00000000000000000000000000000000000C6
